{
  "contractName": "AddLiquidity",
  "abi": [
    {
      "anonymous": false,
      "inputs": [
        {
          "indexed": false,
          "internalType": "string",
          "name": "message",
          "type": "string"
        },
        {
          "indexed": false,
          "internalType": "uint256",
          "name": "value",
          "type": "uint256"
        }
      ],
      "name": "Log",
      "type": "event"
    },
    {
      "inputs": [
        {
          "internalType": "address",
          "name": "_tokenA",
          "type": "address"
        },
        {
          "internalType": "address",
          "name": "_tokenB",
          "type": "address"
        },
        {
          "internalType": "uint256",
          "name": "_amountA",
          "type": "uint256"
        },
        {
          "internalType": "uint256",
          "name": "_amountB",
          "type": "uint256"
        }
      ],
      "name": "addLiquidity",
      "outputs": [],
      "stateMutability": "nonpayable",
      "type": "function"
    }
  ],
  "bytecode": "0x608060405234801561001057600080fd5b5061088f806100206000396000f3fe608060405234801561001057600080fd5b506004361061002b5760003560e01c8063cf6c62ea14610030575b600080fd5b61004a60048036038101906100459190610465565b61004c565b005b8373ffffffffffffffffffffffffffffffffffffffff166323b872dd3330856040518463ffffffff1660e01b8152600401610089939291906104ea565b6020604051808303816000875af11580156100a8573d6000803e3d6000fd5b505050506040513d601f19601f820116820180604052508101906100cc9190610559565b508273ffffffffffffffffffffffffffffffffffffffff166323b872dd3330846040518463ffffffff1660e01b815260040161010a939291906104ea565b6020604051808303816000875af1158015610129573d6000803e3d6000fd5b505050506040513d601f19601f8201168201806040525081019061014d9190610559565b508373ffffffffffffffffffffffffffffffffffffffff1663095ea7b3737a250d5630b4cf539739df2c5dacb4c659f2488d846040518363ffffffff1660e01b815260040161019d929190610586565b6020604051808303816000875af11580156101bc573d6000803e3d6000fd5b505050506040513d601f19601f820116820180604052508101906101e09190610559565b508273ffffffffffffffffffffffffffffffffffffffff1663095ea7b3737a250d5630b4cf539739df2c5dacb4c659f2488d836040518363ffffffff1660e01b8152600401610230929190610586565b6020604051808303816000875af115801561024f573d6000803e3d6000fd5b505050506040513d601f19601f820116820180604052508101906102739190610559565b506000806000737a250d5630b4cf539739df2c5dacb4c659f2488d73ffffffffffffffffffffffffffffffffffffffff1663e8e337008888888860018033426040518963ffffffff1660e01b81526004016102d59897969594939291906105f4565b6060604051808303816000875af11580156102f4573d6000803e3d6000fd5b505050506040513d601f19601f820116820180604052508101906103189190610687565b9250925092507fdd970dd9b5bfe707922155b058a407655cb18288b807e2216442bca8ad83d6b58360405161034d9190610737565b60405180910390a17fdd970dd9b5bfe707922155b058a407655cb18288b807e2216442bca8ad83d6b58260405161038491906107b1565b60405180910390a17fdd970dd9b5bfe707922155b058a407655cb18288b807e2216442bca8ad83d6b5816040516103bb919061082b565b60405180910390a150505050505050565b600080fd5b600073ffffffffffffffffffffffffffffffffffffffff82169050919050565b60006103fc826103d1565b9050919050565b61040c816103f1565b811461041757600080fd5b50565b60008135905061042981610403565b92915050565b6000819050919050565b6104428161042f565b811461044d57600080fd5b50565b60008135905061045f81610439565b92915050565b6000806000806080858703121561047f5761047e6103cc565b5b600061048d8782880161041a565b945050602061049e8782880161041a565b93505060406104af87828801610450565b92505060606104c087828801610450565b91505092959194509250565b6104d5816103f1565b82525050565b6104e48161042f565b82525050565b60006060820190506104ff60008301866104cc565b61050c60208301856104cc565b61051960408301846104db565b949350505050565b60008115159050919050565b61053681610521565b811461054157600080fd5b50565b6000815190506105538161052d565b92915050565b60006020828403121561056f5761056e6103cc565b5b600061057d84828501610544565b91505092915050565b600060408201905061059b60008301856104cc565b6105a860208301846104db565b9392505050565b6000819050919050565b6000819050919050565b60006105de6105d96105d4846105af565b6105b9565b61042f565b9050919050565b6105ee816105c3565b82525050565b60006101008201905061060a600083018b6104cc565b610617602083018a6104cc565b61062460408301896104db565b61063160608301886104db565b61063e60808301876105e5565b61064b60a08301866105e5565b61065860c08301856104cc565b61066560e08301846104db565b9998505050505050505050565b60008151905061068181610439565b92915050565b6000806000606084860312156106a05761069f6103cc565b5b60006106ae86828701610672565b93505060206106bf86828701610672565b92505060406106d086828701610672565b9150509250925092565b600082825260208201905092915050565b7f616d6f756e744100000000000000000000000000000000000000000000000000600082015250565b60006107216007836106da565b915061072c826106eb565b602082019050919050565b6000604082019050818103600083015261075081610714565b905061075f60208301846104db565b92915050565b7f616d6f756e744200000000000000000000000000000000000000000000000000600082015250565b600061079b6007836106da565b91506107a682610765565b602082019050919050565b600060408201905081810360008301526107ca8161078e565b90506107d960208301846104db565b92915050565b7f6c69717569646974790000000000000000000000000000000000000000000000600082015250565b60006108156009836106da565b9150610820826107df565b602082019050919050565b6000604082019050818103600083015261084481610808565b905061085360208301846104db565b9291505056fea26469706673582212201332034451e2af760465e80dca0fc9ff4d5f2688395039efd4a2a0061734365864736f6c634300080b0033",
  "immutableReferences": {},
  "source": "pragma solidity ^0.8.0;\r\n\r\nimport \"@openzeppelin/contracts/token/ERC20/IERC20.sol\";\r\nimport \"@uniswap/v2-periphery/contracts/interfaces/IUniswapV2Router02.sol\";\r\n\r\n\r\ncontract AddLiquidity {\r\n  address private constant UNISWAP_FACTORY = 0x5C69bEe701ef814a2B6a3EDD4B1652CB9cc5aA6f;\r\n  address private constant UNISWAP_ROUTER = 0x7a250d5630B4cF539739dF2C5dAcb4c659F2488D;\r\n  address private constant WETH = 0xC02aaA39b223FE8D0A0e5C4F27eAD9083C756Cc2;\r\n\r\n  event Log(string message, uint value);\r\n  \r\n  function addLiquidity(address _tokenA, address _tokenB, uint _amountA, uint _amountB) external {\r\n    IERC20(_tokenA).transferFrom(msg.sender, address(this), _amountA);\r\n    IERC20(_tokenB).transferFrom(msg.sender, address(this), _amountB);\r\n\r\n    IERC20(_tokenA).approve(UNISWAP_ROUTER, _amountA);\r\n    IERC20(_tokenB).approve(UNISWAP_ROUTER, _amountB);\r\n\r\n    (uint amountA, uint amountB, uint liquidity) = \r\n    IUniswapV2Router02(UNISWAP_ROUTER).addLiquidity(\r\n      _tokenA,\r\n      _tokenB,\r\n      _amountA,\r\n      _amountB,\r\n      1,\r\n      1,\r\n      msg.sender,\r\n      block.timestamp\r\n    );\r\n\r\n    emit Log(\"amountA\", amountA);\r\n    emit Log(\"amountB\", amountB);\r\n    emit Log(\"liquidity\", liquidity);\r\n  }\r\n\r\n}",
  "sourcePath": "/mnt/c/pr0/blockchain-projects/mainnet-fork/contracts/AddLiquidity.sol",
  "compiler": {
    "name": "solc",
    "version": "0.8.11+commit.d7f03943.Emscripten.clang"
  },
  "schemaVersion": "3.4.4",
  "updatedAt": "2022-09-12T02:22:11.824Z",
  "devdoc": {
    "kind": "dev",
    "methods": {},
    "version": 1
  },
  "userdoc": {
    "kind": "user",
    "methods": {},
    "version": 1
  }
}