{
  "contractName": "SwapTokens",
  "abi": [
    {
      "inputs": [],
      "stateMutability": "nonpayable",
      "type": "constructor"
    },
    {
      "anonymous": false,
      "inputs": [
        {
          "indexed": false,
          "internalType": "address",
          "name": "tokenIn",
          "type": "address"
        },
        {
          "indexed": false,
          "internalType": "address",
          "name": "tokenOut",
          "type": "address"
        },
        {
          "indexed": false,
          "internalType": "uint256",
          "name": "amountIn",
          "type": "uint256"
        },
        {
          "indexed": false,
          "internalType": "uint256",
          "name": "amountOut",
          "type": "uint256"
        },
        {
          "indexed": false,
          "internalType": "address",
          "name": "to",
          "type": "address"
        },
        {
          "indexed": false,
          "internalType": "uint256",
          "name": "timestamp",
          "type": "uint256"
        }
      ],
      "name": "Swap",
      "type": "event"
    },
    {
      "inputs": [
        {
          "internalType": "address",
          "name": "_newAddress",
          "type": "address"
        }
      ],
      "name": "updateUniswapV2RouterAddress",
      "outputs": [],
      "stateMutability": "nonpayable",
      "type": "function"
    },
    {
      "inputs": [
        {
          "internalType": "address",
          "name": "_newAddress",
          "type": "address"
        }
      ],
      "name": "updateWETHAddress",
      "outputs": [],
      "stateMutability": "nonpayable",
      "type": "function"
    },
    {
      "inputs": [
        {
          "internalType": "address",
          "name": "_tokenIn",
          "type": "address"
        },
        {
          "internalType": "address",
          "name": "_tokenOut",
          "type": "address"
        },
        {
          "internalType": "uint256",
          "name": "_amountIn",
          "type": "uint256"
        },
        {
          "internalType": "uint256",
          "name": "_amountOutMin",
          "type": "uint256"
        },
        {
          "internalType": "address",
          "name": "_to",
          "type": "address"
        }
      ],
      "name": "swap",
      "outputs": [],
      "stateMutability": "nonpayable",
      "type": "function"
    }
  ],
  "bytecode": "0x608060405234801561001057600080fd5b50737a250d5630b4cf539739df2c5dacb4c659f2488d6000806101000a81548173ffffffffffffffffffffffffffffffffffffffff021916908373ffffffffffffffffffffffffffffffffffffffff16021790555073c02aaa39b223fe8d0a0e5c4f27ead9083c756cc2600160006101000a81548173ffffffffffffffffffffffffffffffffffffffff021916908373ffffffffffffffffffffffffffffffffffffffff16021790555033600260006101000a81548173ffffffffffffffffffffffffffffffffffffffff021916908373ffffffffffffffffffffffffffffffffffffffff160217905550610c1b8061010a6000396000f3fe608060405234801561001057600080fd5b50600436106100405760003560e01c8062684fd1146100455780638918719814610061578063d5bcb9b51461007d575b600080fd5b61005f600480360381019061005a9190610622565b610099565b005b61007b60048036038101906100769190610622565b61016d565b005b61009760048036038101906100929190610685565b610240565b005b600260009054906101000a900473ffffffffffffffffffffffffffffffffffffffff1673ffffffffffffffffffffffffffffffffffffffff163373ffffffffffffffffffffffffffffffffffffffff1614610129576040517f08c379a000000000000000000000000000000000000000000000000000000000815260040161012090610783565b60405180910390fd5b80600160006101000a81548173ffffffffffffffffffffffffffffffffffffffff021916908373ffffffffffffffffffffffffffffffffffffffff16021790555050565b600260009054906101000a900473ffffffffffffffffffffffffffffffffffffffff1673ffffffffffffffffffffffffffffffffffffffff163373ffffffffffffffffffffffffffffffffffffffff16146101fd576040517f08c379a00000000000000000000000000000000000000000000000000000000081526004016101f490610783565b60405180910390fd5b806000806101000a81548173ffffffffffffffffffffffffffffffffffffffff021916908373ffffffffffffffffffffffffffffffffffffffff16021790555050565b8473ffffffffffffffffffffffffffffffffffffffff166323b872dd3330866040518463ffffffff1660e01b815260040161027d939291906107c1565b6020604051808303816000875af115801561029c573d6000803e3d6000fd5b505050506040513d601f19601f820116820180604052508101906102c09190610830565b508473ffffffffffffffffffffffffffffffffffffffff1663095ea7b360008054906101000a900473ffffffffffffffffffffffffffffffffffffffff16856040518363ffffffff1660e01b815260040161031c92919061085d565b6020604051808303816000875af115801561033b573d6000803e3d6000fd5b505050506040513d601f19601f8201168201806040525081019061035f9190610830565b506060600367ffffffffffffffff81111561037d5761037c610886565b5b6040519080825280602002602001820160405280156103ab5781602001602082028036833780820191505090505b50905085816000815181106103c3576103c26108b5565b5b602002602001019073ffffffffffffffffffffffffffffffffffffffff16908173ffffffffffffffffffffffffffffffffffffffff1681525050600160009054906101000a900473ffffffffffffffffffffffffffffffffffffffff1681600181518110610434576104336108b5565b5b602002602001019073ffffffffffffffffffffffffffffffffffffffff16908173ffffffffffffffffffffffffffffffffffffffff16815250508481600281518110610483576104826108b5565b5b602002602001019073ffffffffffffffffffffffffffffffffffffffff16908173ffffffffffffffffffffffffffffffffffffffff168152505060008054906101000a900473ffffffffffffffffffffffffffffffffffffffff1673ffffffffffffffffffffffffffffffffffffffff166338ed173985858486426040518663ffffffff1660e01b815260040161051e9594939291906109a2565b6000604051808303816000875af115801561053d573d6000803e3d6000fd5b505050506040513d6000823e3d601f19601f820116820180604052508101906105669190610b3b565b507f90cc256f5af4416325df97c99f4628609e5f90fbae7338ae3c3b29a075e162e88686868686426040516105a096959493929190610b84565b60405180910390a1505050505050565b6000604051905090565b600080fd5b600080fd5b600073ffffffffffffffffffffffffffffffffffffffff82169050919050565b60006105ef826105c4565b9050919050565b6105ff816105e4565b811461060a57600080fd5b50565b60008135905061061c816105f6565b92915050565b600060208284031215610638576106376105ba565b5b60006106468482850161060d565b91505092915050565b6000819050919050565b6106628161064f565b811461066d57600080fd5b50565b60008135905061067f81610659565b92915050565b600080600080600060a086880312156106a1576106a06105ba565b5b60006106af8882890161060d565b95505060206106c08882890161060d565b94505060406106d188828901610670565b93505060606106e288828901610670565b92505060806106f38882890161060d565b9150509295509295909350565b600082825260208201905092915050565b7f4f6e6c7920746865206f776e65722063616e2063616c6c20746869732066756e60008201527f6374696f6e000000000000000000000000000000000000000000000000000000602082015250565b600061076d602583610700565b915061077882610711565b604082019050919050565b6000602082019050818103600083015261079c81610760565b9050919050565b6107ac816105e4565b82525050565b6107bb8161064f565b82525050565b60006060820190506107d660008301866107a3565b6107e360208301856107a3565b6107f060408301846107b2565b949350505050565b60008115159050919050565b61080d816107f8565b811461081857600080fd5b50565b60008151905061082a81610804565b92915050565b600060208284031215610846576108456105ba565b5b60006108548482850161081b565b91505092915050565b600060408201905061087260008301856107a3565b61087f60208301846107b2565b9392505050565b7f4e487b7100000000000000000000000000000000000000000000000000000000600052604160045260246000fd5b7f4e487b7100000000000000000000000000000000000000000000000000000000600052603260045260246000fd5b600081519050919050565b600082825260208201905092915050565b6000819050602082019050919050565b610919816105e4565b82525050565b600061092b8383610910565b60208301905092915050565b6000602082019050919050565b600061094f826108e4565b61095981856108ef565b935061096483610900565b8060005b8381101561099557815161097c888261091f565b975061098783610937565b925050600181019050610968565b5085935050505092915050565b600060a0820190506109b760008301886107b2565b6109c460208301876107b2565b81810360408301526109d68186610944565b90506109e560608301856107a3565b6109f260808301846107b2565b9695505050505050565b600080fd5b6000601f19601f8301169050919050565b610a1b82610a01565b810181811067ffffffffffffffff82111715610a3a57610a39610886565b5b80604052505050565b6000610a4d6105b0565b9050610a598282610a12565b919050565b600067ffffffffffffffff821115610a7957610a78610886565b5b602082029050602081019050919050565b600080fd5b600081519050610a9e81610659565b92915050565b6000610ab7610ab284610a5e565b610a43565b90508083825260208201905060208402830185811115610ada57610ad9610a8a565b5b835b81811015610b035780610aef8882610a8f565b845260208401935050602081019050610adc565b5050509392505050565b600082601f830112610b2257610b216109fc565b5b8151610b32848260208601610aa4565b91505092915050565b600060208284031215610b5157610b506105ba565b5b600082015167ffffffffffffffff811115610b6f57610b6e6105bf565b5b610b7b84828501610b0d565b91505092915050565b600060c082019050610b9960008301896107a3565b610ba660208301886107a3565b610bb360408301876107b2565b610bc060608301866107b2565b610bcd60808301856107a3565b610bda60a08301846107b2565b97965050505050505056fea26469706673582212200d70dae583f00d037417b4dd1f44b645d8cf4a6b7d7be989b8a4d77d8ca910df64736f6c634300080b0033",
  "immutableReferences": {},
  "source": "pragma solidity ^0.8.0;\r\n\r\nimport \"./interfaces/IUniswapRouter.sol\";\r\nimport \"./interfaces/IERC20.sol\";\r\n\r\ncontract SwapTokens {\r\n  address private UNISWAP_V2_ROUTER;\r\n  address private WETH;\r\n  address private owner;\r\n\r\n  event Swap(address tokenIn, address tokenOut, uint amountIn, uint amountOut, address to, uint timestamp);\r\n\r\n  constructor() {\r\n    UNISWAP_V2_ROUTER = 0x7a250d5630B4cF539739dF2C5dAcb4c659F2488D;\r\n    WETH = 0xC02aaA39b223FE8D0A0e5C4F27eAD9083C756Cc2;\r\n    owner = msg.sender;\r\n  }\r\n  \r\n  modifier onlyOwner() {\r\n    require(msg.sender == owner, \"Only the owner can call this function\");\r\n    _;\r\n  }\r\n\r\n  function updateUniswapV2RouterAddress(address _newAddress) public onlyOwner() {\r\n    UNISWAP_V2_ROUTER = _newAddress;\r\n  }\r\n\r\n  function updateWETHAddress(address _newAddress) public onlyOwner() {\r\n    WETH = _newAddress;\r\n  }\r\n\r\n  /**\r\n   * @dev Swaps two tokens specifying the minimum number of tokens to receive in exchange for the tokens you give\r\n   * @param _tokenIn - The address of the token the trader is sending\r\n   * @param _tokenOut - The address of the token the trader wants to receive\r\n   * @param _amountIn - The amount of tokens given by the trader\r\n   * @param _amountOutMin - The amount of desired tokens to receive out of the trade\r\n   * @param _to - The address that will receive the output tokens\r\n   * Returns the total of output tokens to the specified address in the _to parameter\r\n   */\r\n   function swap(\r\n    address _tokenIn,\r\n    address _tokenOut,\r\n    uint _amountIn,\r\n    uint _amountOutMin,\r\n    address _to\r\n   ) external {\r\n    IERC20(_tokenIn).transferFrom(msg.sender, address(this), _amountIn);\r\n    IERC20(_tokenIn).approve(UNISWAP_V2_ROUTER, _amountIn);\r\n    \r\n    // Trades the _tokenIn for WETH and then WETH for the _tokenOut\r\n    address[] memory path;\r\n    path = new address[](3);\r\n    path[0] = _tokenIn;\r\n    path[1] = WETH;\r\n    path[2] = _tokenOut;\r\n\r\n    IUniswapRouter(UNISWAP_V2_ROUTER).swapExactTokensForTokens(_amountIn, _amountOutMin, path, _to, block.timestamp);\r\n    emit Swap(_tokenIn, _tokenOut, _amountIn, _amountOutMin, _to, block.timestamp);\r\n   }\r\n\r\n  \r\n}",
  "sourcePath": "/mnt/c/pr0/blockchain-projects/mainnet-fork/contracts/SwapTokens.sol",
  "compiler": {
    "name": "solc",
    "version": "0.8.11+commit.d7f03943.Emscripten.clang"
  },
  "schemaVersion": "3.4.4",
  "updatedAt": "2022-09-12T02:22:11.836Z",
  "devdoc": {
    "kind": "dev",
    "methods": {
      "swap(address,address,uint256,uint256,address)": {
        "details": "Swaps two tokens specifying the minimum number of tokens to receive in exchange for the tokens you give",
        "params": {
          "_amountIn": "- The amount of tokens given by the trader",
          "_amountOutMin": "- The amount of desired tokens to receive out of the trade",
          "_to": "- The address that will receive the output tokens Returns the total of output tokens to the specified address in the _to parameter",
          "_tokenIn": "- The address of the token the trader is sending",
          "_tokenOut": "- The address of the token the trader wants to receive"
        }
      }
    },
    "version": 1
  },
  "userdoc": {
    "kind": "user",
    "methods": {},
    "version": 1
  }
}