{
  "contractName": "CompountERC20",
  "abi": [
    {
      "inputs": [
        {
          "internalType": "address",
          "name": "_token",
          "type": "address"
        },
        {
          "internalType": "address",
          "name": "_cToken",
          "type": "address"
        }
      ],
      "stateMutability": "nonpayable",
      "type": "constructor"
    },
    {
      "inputs": [],
      "name": "cToken",
      "outputs": [
        {
          "internalType": "contract CErc20",
          "name": "",
          "type": "address"
        }
      ],
      "stateMutability": "view",
      "type": "function"
    },
    {
      "inputs": [],
      "name": "token",
      "outputs": [
        {
          "internalType": "contract IERC20",
          "name": "",
          "type": "address"
        }
      ],
      "stateMutability": "view",
      "type": "function"
    },
    {
      "inputs": [
        {
          "internalType": "uint256",
          "name": "_amount",
          "type": "uint256"
        }
      ],
      "name": "supply",
      "outputs": [],
      "stateMutability": "nonpayable",
      "type": "function"
    },
    {
      "inputs": [],
      "name": "getCTokenBalance",
      "outputs": [
        {
          "internalType": "uint256",
          "name": "",
          "type": "uint256"
        }
      ],
      "stateMutability": "view",
      "type": "function"
    },
    {
      "inputs": [],
      "name": "getInfo",
      "outputs": [
        {
          "internalType": "uint256",
          "name": "exchangeRate",
          "type": "uint256"
        },
        {
          "internalType": "uint256",
          "name": "supplyRate",
          "type": "uint256"
        }
      ],
      "stateMutability": "nonpayable",
      "type": "function"
    },
    {
      "inputs": [],
      "name": "balanceOfUnderlying",
      "outputs": [
        {
          "internalType": "uint256",
          "name": "",
          "type": "uint256"
        }
      ],
      "stateMutability": "nonpayable",
      "type": "function"
    },
    {
      "inputs": [
        {
          "internalType": "uint256",
          "name": "_cTokenAmount",
          "type": "uint256"
        }
      ],
      "name": "redeem",
      "outputs": [],
      "stateMutability": "nonpayable",
      "type": "function"
    }
  ],
  "bytecode": "0x608060405234801561001057600080fd5b50604051610d53380380610d538339818101604052810190610032919061011d565b816000806101000a81548173ffffffffffffffffffffffffffffffffffffffff021916908373ffffffffffffffffffffffffffffffffffffffff16021790555080600160006101000a81548173ffffffffffffffffffffffffffffffffffffffff021916908373ffffffffffffffffffffffffffffffffffffffff160217905550505061015d565b600080fd5b600073ffffffffffffffffffffffffffffffffffffffff82169050919050565b60006100ea826100bf565b9050919050565b6100fa816100df565b811461010557600080fd5b50565b600081519050610117816100f1565b92915050565b60008060408385031215610134576101336100ba565b5b600061014285828601610108565b925050602061015385828601610108565b9150509250929050565b610be78061016c6000396000f3fe608060405234801561001057600080fd5b506004361061007d5760003560e01c806369e527da1161005b57806369e527da146100db5780638eae8854146100f9578063db006a7514610117578063fc0c546a146101335761007d565b806335403023146100825780634880f9511461009e5780635a9b0b89146100bc575b600080fd5b61009c60048036038101906100979190610797565b610151565b005b6100a6610396565b6040516100b391906107d3565b60405180910390f35b6100c461045b565b6040516100d29291906107ee565b60405180910390f35b6100e361058c565b6040516100f09190610896565b60405180910390f35b6101016105b2565b60405161010e91906107d3565b60405180910390f35b610131600480360381019061012c9190610797565b610655565b005b61013b610738565b60405161014891906108d2565b60405180910390f35b60008054906101000a900473ffffffffffffffffffffffffffffffffffffffff1673ffffffffffffffffffffffffffffffffffffffff166323b872dd3330846040518463ffffffff1660e01b81526004016101ae9392919061090e565b6020604051808303816000875af11580156101cd573d6000803e3d6000fd5b505050506040513d601f19601f820116820180604052508101906101f1919061097d565b5060008054906101000a900473ffffffffffffffffffffffffffffffffffffffff1673ffffffffffffffffffffffffffffffffffffffff1663095ea7b3600160009054906101000a900473ffffffffffffffffffffffffffffffffffffffff16836040518363ffffffff1660e01b815260040161026f9291906109aa565b6020604051808303816000875af115801561028e573d6000803e3d6000fd5b505050506040513d601f19601f820116820180604052508101906102b2919061097d565b506000600160009054906101000a900473ffffffffffffffffffffffffffffffffffffffff1673ffffffffffffffffffffffffffffffffffffffff1663a0712d68836040518263ffffffff1660e01b815260040161031091906107d3565b6020604051808303816000875af115801561032f573d6000803e3d6000fd5b505050506040513d601f19601f8201168201806040525081019061035391906109e8565b14610393576040517f08c379a000000000000000000000000000000000000000000000000000000000815260040161038a90610abe565b60405180910390fd5b50565b6000600160009054906101000a900473ffffffffffffffffffffffffffffffffffffffff1673ffffffffffffffffffffffffffffffffffffffff16633af9e66960008054906101000a900473ffffffffffffffffffffffffffffffffffffffff166040518263ffffffff1660e01b81526004016104139190610ade565b6020604051808303816000875af1158015610432573d6000803e3d6000fd5b505050506040513d601f19601f8201168201806040525081019061045691906109e8565b905090565b600080600160009054906101000a900473ffffffffffffffffffffffffffffffffffffffff1673ffffffffffffffffffffffffffffffffffffffff1663bd6d894d6040518163ffffffff1660e01b81526004016020604051808303816000875af11580156104cd573d6000803e3d6000fd5b505050506040513d601f19601f820116820180604052508101906104f191906109e8565b9150600160009054906101000a900473ffffffffffffffffffffffffffffffffffffffff1673ffffffffffffffffffffffffffffffffffffffff1663ae9d70b06040518163ffffffff1660e01b81526004016020604051808303816000875af1158015610562573d6000803e3d6000fd5b505050506040513d601f19601f8201168201806040525081019061058691906109e8565b90509091565b600160009054906101000a900473ffffffffffffffffffffffffffffffffffffffff1681565b6000600160009054906101000a900473ffffffffffffffffffffffffffffffffffffffff1673ffffffffffffffffffffffffffffffffffffffff166370a08231306040518263ffffffff1660e01b815260040161060f9190610ade565b602060405180830381865afa15801561062c573d6000803e3d6000fd5b505050506040513d601f19601f8201168201806040525081019061065091906109e8565b905090565b6000600160009054906101000a900473ffffffffffffffffffffffffffffffffffffffff1673ffffffffffffffffffffffffffffffffffffffff1663db006a75836040518263ffffffff1660e01b81526004016106b291906107d3565b6020604051808303816000875af11580156106d1573d6000803e3d6000fd5b505050506040513d601f19601f820116820180604052508101906106f591906109e8565b14610735576040517f08c379a000000000000000000000000000000000000000000000000000000000815260040161072c90610b91565b60405180910390fd5b50565b60008054906101000a900473ffffffffffffffffffffffffffffffffffffffff1681565b600080fd5b6000819050919050565b61077481610761565b811461077f57600080fd5b50565b6000813590506107918161076b565b92915050565b6000602082840312156107ad576107ac61075c565b5b60006107bb84828501610782565b91505092915050565b6107cd81610761565b82525050565b60006020820190506107e860008301846107c4565b92915050565b600060408201905061080360008301856107c4565b61081060208301846107c4565b9392505050565b600073ffffffffffffffffffffffffffffffffffffffff82169050919050565b6000819050919050565b600061085c61085761085284610817565b610837565b610817565b9050919050565b600061086e82610841565b9050919050565b600061088082610863565b9050919050565b61089081610875565b82525050565b60006020820190506108ab6000830184610887565b92915050565b60006108bc82610863565b9050919050565b6108cc816108b1565b82525050565b60006020820190506108e760008301846108c3565b92915050565b60006108f882610817565b9050919050565b610908816108ed565b82525050565b600060608201905061092360008301866108ff565b61093060208301856108ff565b61093d60408301846107c4565b949350505050565b60008115159050919050565b61095a81610945565b811461096557600080fd5b50565b60008151905061097781610951565b92915050565b6000602082840312156109935761099261075c565b5b60006109a184828501610968565b91505092915050565b60006040820190506109bf60008301856108ff565b6109cc60208301846107c4565b9392505050565b6000815190506109e28161076b565b92915050565b6000602082840312156109fe576109fd61075c565b5b6000610a0c848285016109d3565b91505092915050565b600082825260208201905092915050565b7f416e206572726f72206f636375726564207768696c6520737570706c79696e6760008201527f2074686520746f6b656e7320746f2074686520436f6d706f756e642070726f7460208201527f6f636f6c00000000000000000000000000000000000000000000000000000000604082015250565b6000610aa8604483610a15565b9150610ab382610a26565b606082019050919050565b60006020820190508181036000830152610ad781610a9b565b9050919050565b6000602082019050610af360008301846108ff565b92915050565b7f416e206572726f72206f636375726564207768696c652072656465656d696e6760008201527f20746865206261736520746f6b656e732066726f6d20746520436f6d706f756e60208201527f642070726f746f636f6c00000000000000000000000000000000000000000000604082015250565b6000610b7b604a83610a15565b9150610b8682610af9565b606082019050919050565b60006020820190508181036000830152610baa81610b6e565b905091905056fea26469706673582212200733837ad3bc8e168447ba55c2f922af33e124f83435f5aceac4acbb77a2c82264736f6c634300080b0033",
  "immutableReferences": {},
  "source": "// SPDX-License-Identifier: MIT\r\npragma solidity ^0.8.0;\r\n\r\nimport \"./interfaces/compund.sol\";\r\nimport \"@openzeppelin/contracts/token/ERC20/IERC20.sol\";\r\n\r\ncontract CompountERC20 {\r\n  IERC20 public token;\r\n  CErc20 public cToken;\r\n\r\n  constructor(address _token, address _cToken) {\r\n    token = IERC20(_token);\r\n    cToken = CErc20(_cToken);\r\n  }\r\n\r\n  function supply(uint _amount) external{\r\n    token.transferFrom(msg.sender,address(this),_amount); //Transfering the tokens from the caller address into this contract\r\n    token.approve(address(cToken),_amount);\r\n    require(cToken.mint(_amount) == 0, \"An error occured while supplying the tokens to the Compound protocol\");\r\n  }\r\n\r\n  function getCTokenBalance() external view returns (uint) {\r\n    return cToken.balanceOf(address(this));\r\n  }\r\n\r\n  function getInfo() external returns(uint exchangeRate, uint supplyRate) {\r\n    exchangeRate = cToken.exchangeRateCurrent();\r\n    supplyRate = cToken.supplyRatePerBlock();\r\n  }\r\n\r\n  function balanceOfUnderlying() external returns (uint) {\r\n    return cToken.balanceOfUnderlying(address(token));\r\n  }\r\n\r\n  function redeem(uint _cTokenAmount) external {\r\n    require(cToken.redeem(_cTokenAmount) == 0, \"An error occured while redeeming the base tokens from te Compound protocol\");\r\n  }\r\n\r\n}",
  "sourcePath": "/mnt/c/pr0/blockchain-projects/mainnet-fork/Compound/contracts/CompoundERC20.sol",
  "compiler": {
    "name": "solc",
    "version": "0.8.11+commit.d7f03943.Emscripten.clang"
  },
  "schemaVersion": "3.4.4",
  "updatedAt": "2022-10-13T18:16:37.044Z",
  "devdoc": {
    "kind": "dev",
    "methods": {},
    "version": 1
  },
  "userdoc": {
    "kind": "user",
    "methods": {},
    "version": 1
  }
}