{
  "contractName": "CompoundBorrower",
  "abi": [
    {
      "inputs": [
        {
          "internalType": "address",
          "name": "_tokenSupply",
          "type": "address"
        },
        {
          "internalType": "address",
          "name": "_cTokenSupply",
          "type": "address"
        },
        {
          "internalType": "address",
          "name": "_tokenBorrow",
          "type": "address"
        },
        {
          "internalType": "address",
          "name": "_cTokenBorrow",
          "type": "address"
        }
      ],
      "stateMutability": "nonpayable",
      "type": "constructor"
    },
    {
      "anonymous": false,
      "inputs": [
        {
          "indexed": false,
          "internalType": "string",
          "name": "message",
          "type": "string"
        },
        {
          "indexed": false,
          "internalType": "uint256",
          "name": "val",
          "type": "uint256"
        }
      ],
      "name": "Log",
      "type": "event"
    },
    {
      "inputs": [],
      "name": "cTokenBorrow",
      "outputs": [
        {
          "internalType": "contract CErc20",
          "name": "",
          "type": "address"
        }
      ],
      "stateMutability": "view",
      "type": "function"
    },
    {
      "inputs": [],
      "name": "cTokenSupply",
      "outputs": [
        {
          "internalType": "contract CErc20",
          "name": "",
          "type": "address"
        }
      ],
      "stateMutability": "view",
      "type": "function"
    },
    {
      "inputs": [],
      "name": "comptroller",
      "outputs": [
        {
          "internalType": "contract Comptroller",
          "name": "",
          "type": "address"
        }
      ],
      "stateMutability": "view",
      "type": "function"
    },
    {
      "inputs": [],
      "name": "priceFeed",
      "outputs": [
        {
          "internalType": "contract PriceFeed",
          "name": "",
          "type": "address"
        }
      ],
      "stateMutability": "view",
      "type": "function"
    },
    {
      "inputs": [],
      "name": "tokenBorrow",
      "outputs": [
        {
          "internalType": "contract IERC20",
          "name": "",
          "type": "address"
        }
      ],
      "stateMutability": "view",
      "type": "function"
    },
    {
      "inputs": [],
      "name": "tokenSupply",
      "outputs": [
        {
          "internalType": "contract IERC20",
          "name": "",
          "type": "address"
        }
      ],
      "stateMutability": "view",
      "type": "function"
    },
    {
      "inputs": [
        {
          "internalType": "uint256",
          "name": "_amount",
          "type": "uint256"
        }
      ],
      "name": "supply",
      "outputs": [],
      "stateMutability": "nonpayable",
      "type": "function"
    },
    {
      "inputs": [],
      "name": "getSupplyBalance",
      "outputs": [
        {
          "internalType": "uint256",
          "name": "",
          "type": "uint256"
        }
      ],
      "stateMutability": "nonpayable",
      "type": "function"
    },
    {
      "inputs": [],
      "name": "getCollateralFactor",
      "outputs": [
        {
          "internalType": "uint256",
          "name": "",
          "type": "uint256"
        }
      ],
      "stateMutability": "view",
      "type": "function"
    },
    {
      "inputs": [],
      "name": "getAccountLiquidity",
      "outputs": [
        {
          "internalType": "uint256",
          "name": "liquidity",
          "type": "uint256"
        },
        {
          "internalType": "uint256",
          "name": "shortfall",
          "type": "uint256"
        }
      ],
      "stateMutability": "view",
      "type": "function"
    },
    {
      "inputs": [
        {
          "internalType": "address",
          "name": "_cToken",
          "type": "address"
        }
      ],
      "name": "getPriceFeed",
      "outputs": [
        {
          "internalType": "uint256",
          "name": "",
          "type": "uint256"
        }
      ],
      "stateMutability": "view",
      "type": "function"
    },
    {
      "inputs": [],
      "name": "enterMarket",
      "outputs": [],
      "stateMutability": "nonpayable",
      "type": "function"
    },
    {
      "inputs": [
        {
          "internalType": "uint256",
          "name": "_amount",
          "type": "uint256"
        }
      ],
      "name": "borrow",
      "outputs": [],
      "stateMutability": "nonpayable",
      "type": "function"
    },
    {
      "inputs": [],
      "name": "getBorrowBalance",
      "outputs": [
        {
          "internalType": "uint256",
          "name": "",
          "type": "uint256"
        }
      ],
      "stateMutability": "nonpayable",
      "type": "function"
    }
  ],
  "bytecode": "0x6080604052733d9819210a31b4961b30ef54be2aed79b9c9cd3b6000806101000a81548173ffffffffffffffffffffffffffffffffffffffff021916908373ffffffffffffffffffffffffffffffffffffffff16021790555073922018674c12a7f0d394ebeef9b58f186cde13c1600160006101000a81548173ffffffffffffffffffffffffffffffffffffffff021916908373ffffffffffffffffffffffffffffffffffffffff160217905550348015620000ba57600080fd5b50604051620017f1380380620017f18339818101604052810190620000e0919062000258565b83600260006101000a81548173ffffffffffffffffffffffffffffffffffffffff021916908373ffffffffffffffffffffffffffffffffffffffff16021790555082600360006101000a81548173ffffffffffffffffffffffffffffffffffffffff021916908373ffffffffffffffffffffffffffffffffffffffff16021790555081600460006101000a81548173ffffffffffffffffffffffffffffffffffffffff021916908373ffffffffffffffffffffffffffffffffffffffff16021790555080600560006101000a81548173ffffffffffffffffffffffffffffffffffffffff021916908373ffffffffffffffffffffffffffffffffffffffff16021790555050505050620002ca565b600080fd5b600073ffffffffffffffffffffffffffffffffffffffff82169050919050565b60006200022082620001f3565b9050919050565b620002328162000213565b81146200023e57600080fd5b50565b600081519050620002528162000227565b92915050565b60008060008060808587031215620002755762000274620001ee565b5b6000620002858782880162000241565b9450506020620002988782880162000241565b9350506040620002ab8782880162000241565b9250506060620002be8782880162000241565b91505092959194509250565b61151780620002da6000396000f3fe608060405234801561001057600080fd5b50600436106100ea5760003560e01c80637824407f1161008c578063ca20659111610066578063ca2065911461022a578063e8c944e614610248578063fd5bfb5414610266578063fd6bac7014610270576100ea565b80637824407f146101d2578063929ff15d146101f0578063c5ebeaec1461020e576100ea565b806335403023116100c8578063354030231461014a5780635b6cca80146101665780635fe3b56714610196578063741bef1a146101b4576100ea565b806324d6db47146100ef5780632fd4cda71461010d57806335392b711461012c575b600080fd5b6100f761028e565b6040516101049190610c94565b60405180910390f35b6101156102b4565b604051610123929190610cc8565b60405180910390f35b6101346103ad565b6040516101419190610cf1565b60405180910390f35b610164600480360381019061015f9190610d4c565b610477565b005b610180600480360381019061017b9190610db7565b6106c0565b60405161018d9190610cf1565b60405180910390f35b61019e610765565b6040516101ab9190610e05565b60405180910390f35b6101bc610789565b6040516101c99190610e41565b60405180910390f35b6101da6107af565b6040516101e79190610c94565b60405180910390f35b6101f86107d5565b6040516102059190610e7d565b60405180910390f35b61022860048036038101906102239190610d4c565b6107fb565b005b6102326108de565b60405161023f9190610cf1565b60405180910390f35b610250610983565b60405161025d9190610cf1565b60405180910390f35b61026e610a28565b005b610278610bef565b6040516102859190610e7d565b60405180910390f35b600460009054906101000a900473ffffffffffffffffffffffffffffffffffffffff1681565b60008060008060008060009054906101000a900473ffffffffffffffffffffffffffffffffffffffff1673ffffffffffffffffffffffffffffffffffffffff16635ec88c79306040518263ffffffff1660e01b81526004016103169190610ea7565b606060405180830381865afa158015610333573d6000803e3d6000fd5b505050506040513d601f19601f820116820180604052508101906103579190610ed7565b925092509250600083146103a0576040517f08c379a000000000000000000000000000000000000000000000000000000000815260040161039790610f87565b60405180910390fd5b8181945094505050509091565b60008060008054906101000a900473ffffffffffffffffffffffffffffffffffffffff1673ffffffffffffffffffffffffffffffffffffffff16638e8f294b600360009054906101000a900473ffffffffffffffffffffffffffffffffffffffff166040518263ffffffff1660e01b815260040161042b9190610ea7565b606060405180830381865afa158015610448573d6000803e3d6000fd5b505050506040513d601f19601f8201168201806040525081019061046c9190610fdf565b509150508091505090565b600260009054906101000a900473ffffffffffffffffffffffffffffffffffffffff1673ffffffffffffffffffffffffffffffffffffffff166323b872dd3330846040518463ffffffff1660e01b81526004016104d693929190611032565b6020604051808303816000875af11580156104f5573d6000803e3d6000fd5b505050506040513d601f19601f820116820180604052508101906105199190611069565b50600260009054906101000a900473ffffffffffffffffffffffffffffffffffffffff1673ffffffffffffffffffffffffffffffffffffffff1663095ea7b3600360009054906101000a900473ffffffffffffffffffffffffffffffffffffffff16836040518363ffffffff1660e01b8152600401610599929190611096565b6020604051808303816000875af11580156105b8573d6000803e3d6000fd5b505050506040513d601f19601f820116820180604052508101906105dc9190611069565b506000600360009054906101000a900473ffffffffffffffffffffffffffffffffffffffff1673ffffffffffffffffffffffffffffffffffffffff1663a0712d68836040518263ffffffff1660e01b815260040161063a9190610cf1565b6020604051808303816000875af1158015610659573d6000803e3d6000fd5b505050506040513d601f19601f8201168201806040525081019061067d91906110bf565b146106bd576040517f08c379a00000000000000000000000000000000000000000000000000000000081526004016106b490611138565b60405180910390fd5b50565b6000600160009054906101000a900473ffffffffffffffffffffffffffffffffffffffff1673ffffffffffffffffffffffffffffffffffffffff1663fc57d4df836040518263ffffffff1660e01b815260040161071d9190610ea7565b602060405180830381865afa15801561073a573d6000803e3d6000fd5b505050506040513d601f19601f8201168201806040525081019061075e91906110bf565b9050919050565b60008054906101000a900473ffffffffffffffffffffffffffffffffffffffff1681565b600160009054906101000a900473ffffffffffffffffffffffffffffffffffffffff1681565b600260009054906101000a900473ffffffffffffffffffffffffffffffffffffffff1681565b600360009054906101000a900473ffffffffffffffffffffffffffffffffffffffff1681565b6000600560009054906101000a900473ffffffffffffffffffffffffffffffffffffffff1673ffffffffffffffffffffffffffffffffffffffff1663c5ebeaec836040518263ffffffff1660e01b81526004016108589190610cf1565b6020604051808303816000875af1158015610877573d6000803e3d6000fd5b505050506040513d601f19601f8201168201806040525081019061089b91906110bf565b146108db576040517f08c379a00000000000000000000000000000000000000000000000000000000081526004016108d2906111a4565b60405180910390fd5b50565b6000600560009054906101000a900473ffffffffffffffffffffffffffffffffffffffff1673ffffffffffffffffffffffffffffffffffffffff166317bfdfbc306040518263ffffffff1660e01b815260040161093b9190610ea7565b6020604051808303816000875af115801561095a573d6000803e3d6000fd5b505050506040513d601f19601f8201168201806040525081019061097e91906110bf565b905090565b6000600360009054906101000a900473ffffffffffffffffffffffffffffffffffffffff1673ffffffffffffffffffffffffffffffffffffffff16633af9e669306040518263ffffffff1660e01b81526004016109e09190610ea7565b6020604051808303816000875af11580156109ff573d6000803e3d6000fd5b505050506040513d601f19601f82011682018060405250810190610a2391906110bf565b905090565b6000600167ffffffffffffffff811115610a4557610a446111c4565b5b604051908082528060200260200182016040528015610a735781602001602082028036833780820191505090505b509050600360009054906101000a900473ffffffffffffffffffffffffffffffffffffffff1681600081518110610aad57610aac6111f3565b5b602002602001019073ffffffffffffffffffffffffffffffffffffffff16908173ffffffffffffffffffffffffffffffffffffffff168152505060008060009054906101000a900473ffffffffffffffffffffffffffffffffffffffff1673ffffffffffffffffffffffffffffffffffffffff1663c2998238836040518263ffffffff1660e01b8152600401610b4391906112e0565b6000604051808303816000875af1158015610b62573d6000803e3d6000fd5b505050506040513d6000823e3d601f19601f82011682018060405250810190610b8b919061142c565b9050600081600081518110610ba357610ba26111f3565b5b602002602001015114610beb576040517f08c379a0000000000000000000000000000000000000000000000000000000008152600401610be2906114c1565b60405180910390fd5b5050565b600560009054906101000a900473ffffffffffffffffffffffffffffffffffffffff1681565b600073ffffffffffffffffffffffffffffffffffffffff82169050919050565b6000819050919050565b6000610c5a610c55610c5084610c15565b610c35565b610c15565b9050919050565b6000610c6c82610c3f565b9050919050565b6000610c7e82610c61565b9050919050565b610c8e81610c73565b82525050565b6000602082019050610ca96000830184610c85565b92915050565b6000819050919050565b610cc281610caf565b82525050565b6000604082019050610cdd6000830185610cb9565b610cea6020830184610cb9565b9392505050565b6000602082019050610d066000830184610cb9565b92915050565b6000604051905090565b600080fd5b600080fd5b610d2981610caf565b8114610d3457600080fd5b50565b600081359050610d4681610d20565b92915050565b600060208284031215610d6257610d61610d16565b5b6000610d7084828501610d37565b91505092915050565b6000610d8482610c15565b9050919050565b610d9481610d79565b8114610d9f57600080fd5b50565b600081359050610db181610d8b565b92915050565b600060208284031215610dcd57610dcc610d16565b5b6000610ddb84828501610da2565b91505092915050565b6000610def82610c61565b9050919050565b610dff81610de4565b82525050565b6000602082019050610e1a6000830184610df6565b92915050565b6000610e2b82610c61565b9050919050565b610e3b81610e20565b82525050565b6000602082019050610e566000830184610e32565b92915050565b6000610e6782610c61565b9050919050565b610e7781610e5c565b82525050565b6000602082019050610e926000830184610e6e565b92915050565b610ea181610d79565b82525050565b6000602082019050610ebc6000830184610e98565b92915050565b600081519050610ed181610d20565b92915050565b600080600060608486031215610ef057610eef610d16565b5b6000610efe86828701610ec2565b9350506020610f0f86828701610ec2565b9250506040610f2086828701610ec2565b9150509250925092565b600082825260208201905092915050565b7f6572726f72000000000000000000000000000000000000000000000000000000600082015250565b6000610f71600583610f2a565b9150610f7c82610f3b565b602082019050919050565b60006020820190508181036000830152610fa081610f64565b9050919050565b60008115159050919050565b610fbc81610fa7565b8114610fc757600080fd5b50565b600081519050610fd981610fb3565b92915050565b600080600060608486031215610ff857610ff7610d16565b5b600061100686828701610fca565b935050602061101786828701610ec2565b925050604061102886828701610fca565b9150509250925092565b60006060820190506110476000830186610e98565b6110546020830185610e98565b6110616040830184610cb9565b949350505050565b60006020828403121561107f5761107e610d16565b5b600061108d84828501610fca565b91505092915050565b60006040820190506110ab6000830185610e98565b6110b86020830184610cb9565b9392505050565b6000602082840312156110d5576110d4610d16565b5b60006110e384828501610ec2565b91505092915050565b7f6d696e74206661696c6564000000000000000000000000000000000000000000600082015250565b6000611122600b83610f2a565b915061112d826110ec565b602082019050919050565b6000602082019050818103600083015261115181611115565b9050919050565b7f626f72726f77206661696c656400000000000000000000000000000000000000600082015250565b600061118e600d83610f2a565b915061119982611158565b602082019050919050565b600060208201905081810360008301526111bd81611181565b9050919050565b7f4e487b7100000000000000000000000000000000000000000000000000000000600052604160045260246000fd5b7f4e487b7100000000000000000000000000000000000000000000000000000000600052603260045260246000fd5b600081519050919050565b600082825260208201905092915050565b6000819050602082019050919050565b61125781610d79565b82525050565b6000611269838361124e565b60208301905092915050565b6000602082019050919050565b600061128d82611222565b611297818561122d565b93506112a28361123e565b8060005b838110156112d35781516112ba888261125d565b97506112c583611275565b9250506001810190506112a6565b5085935050505092915050565b600060208201905081810360008301526112fa8184611282565b905092915050565b600080fd5b6000601f19601f8301169050919050565b61132182611307565b810181811067ffffffffffffffff821117156113405761133f6111c4565b5b80604052505050565b6000611353610d0c565b905061135f8282611318565b919050565b600067ffffffffffffffff82111561137f5761137e6111c4565b5b602082029050602081019050919050565b600080fd5b60006113a86113a384611364565b611349565b905080838252602082019050602084028301858111156113cb576113ca611390565b5b835b818110156113f457806113e08882610ec2565b8452602084019350506020810190506113cd565b5050509392505050565b600082601f83011261141357611412611302565b5b8151611423848260208601611395565b91505092915050565b60006020828403121561144257611441610d16565b5b600082015167ffffffffffffffff8111156114605761145f610d1b565b5b61146c848285016113fe565b91505092915050565b7f436f6d7074726f6c6c65722e656e7465724d61726b657473206661696c65642e600082015250565b60006114ab602083610f2a565b91506114b682611475565b602082019050919050565b600060208201905081810360008301526114da8161149e565b905091905056fea26469706673582212207b7dece9c1daa723a28f71beb2969b218fa0a24539a7ec133a1449e82d4f670564736f6c634300080b0033",
  "immutableReferences": {},
  "source": "// SPDX-License-Identifier: MIT\r\npragma solidity ^0.8;\r\n\r\nimport \"./interfaces/compound.sol\";\r\nimport \"@openzeppelin/contracts/token/ERC20/IERC20.sol\";\r\n\r\n// <---> The next operations will be performed using the contract:                    CompoundBorrower\r\n// supply tokens to the compound protocol\r\n// enter the market using the cTokens that the supplier received after supplying its tokens to the protocol\r\n// borrow max amount determiend by the total liquidity that was credited after entering the market\r\n// wait few blocks and let that : -------> borrowed balance > supplied balance * col factor     <----> When this happens, the borrow becomes subject to be liquidated!\r\n\r\n// <--> The last operation (The liquidation) will be executed using the contract:     CompoundLiquidator\r\n// liquidate \r\n\r\ncontract CompoundBorrower {\r\n  Comptroller public comptroller =\r\n    Comptroller(0x3d9819210A31b4961b30EF54bE2aeD79B9c9Cd3B);\r\n\r\n  PriceFeed public priceFeed = PriceFeed(0x922018674c12a7F0D394ebEEf9B58F186CdE13c1);\r\n\r\n  IERC20 public tokenSupply;\r\n  CErc20 public cTokenSupply;\r\n  IERC20 public tokenBorrow;\r\n  CErc20 public cTokenBorrow;\r\n\r\n  event Log(string message, uint val);\r\n\r\n  constructor(\r\n    address _tokenSupply,\r\n    address _cTokenSupply,\r\n    address _tokenBorrow,\r\n    address _cTokenBorrow\r\n  ) {\r\n    tokenSupply = IERC20(_tokenSupply);\r\n    cTokenSupply = CErc20(_cTokenSupply);\r\n\r\n    tokenBorrow = IERC20(_tokenBorrow);\r\n    cTokenBorrow = CErc20(_cTokenBorrow);\r\n  }\r\n\r\n  function supply(uint _amount) external {\r\n    tokenSupply.transferFrom(msg.sender, address(this), _amount);\r\n    tokenSupply.approve(address(cTokenSupply), _amount);\r\n    require(cTokenSupply.mint(_amount) == 0, \"mint failed\");\r\n  }\r\n\r\n  // not view function\r\n  function getSupplyBalance() external returns (uint) {\r\n    return cTokenSupply.balanceOfUnderlying(address(this));\r\n  }\r\n\r\n  function getCollateralFactor() external view returns (uint) {\r\n    (, uint colFactor, ) = comptroller.markets(address(cTokenSupply));\r\n    return colFactor; // divide by 1e18 to get in %\r\n  }\r\n\r\n  function getAccountLiquidity() external view returns (uint liquidity, uint shortfall) {\r\n    // liquidity and shortfall in USD scaled up by 1e18\r\n    (uint error, uint _liquidity, uint _shortfall) = comptroller.getAccountLiquidity(\r\n      address(this)\r\n    );\r\n    require(error == 0, \"error\");\r\n    return (_liquidity, _shortfall);\r\n  }\r\n\r\n  function getPriceFeed(address _cToken) external view returns (uint) {\r\n    // scaled up by 1e18\r\n    return priceFeed.getUnderlyingPrice(_cToken);\r\n  }\r\n\r\n  function enterMarket() external {\r\n    address[] memory cTokens = new address[](1);\r\n    cTokens[0] = address(cTokenSupply);\r\n    uint[] memory errors = comptroller.enterMarkets(cTokens);\r\n    require(errors[0] == 0, \"Comptroller.enterMarkets failed.\");\r\n  }\r\n\r\n  function borrow(uint _amount) external {\r\n    require(cTokenBorrow.borrow(_amount) == 0, \"borrow failed\");\r\n  }\r\n\r\n  // not view function\r\n  function getBorrowBalance() public returns (uint) {\r\n    return cTokenBorrow.borrowBalanceCurrent(address(this));\r\n  }\r\n}\r\n\r\ncontract CompoundLiquidator {\r\n  Comptroller public comptroller = Comptroller(0x3d9819210A31b4961b30EF54bE2aeD79B9c9Cd3B);\r\n  \r\n  IERC20 public tokenBorrow;\r\n  CErc20 public cTokenBorrow;\r\n  \r\n  constructor(address _tokenBorrow, address _cTokenBorrow) {\r\n    tokenBorrow = IERC20(_tokenBorrow);\r\n    cTokenBorrow = CErc20(_cTokenBorrow);\r\n  }\r\n\r\n  /**\r\n   * @dev close factor is the maximum percentage of the borrowed token that can be repaid\r\n   * @return value comes from calling the closeFactorMantissa() function using the comptroller state variable\r\n   */\r\n  function getCloseFactor() external view returns (uint) {\r\n    return comptroller.closeFactorMantissa();\r\n  }\r\n\r\n  /**\r\n   * @dev Liquidation incentive is the amount of collateral that is given to the liquidator\r\n   * @return an uint that represents the amount of collateral that is given to the liquidator\r\n   */\r\n  function getLiquidationIncentive() external view returns (uint) {\r\n    return comptroller.liquidationIncentiveMantissa();\r\n  }\r\n\r\n  /**\r\n   * @dev get the exact number of collateral that will be liquidated\r\n   * @param _cTokenBorrowed -> The address of the cToken contract that was borrowed\r\n   * @param _cTokenCollateral -> The address of the cToken contract of the collateral that will be given to the liquidator for liquidating the borrow\r\n   * @param _actualRepayAmount -> The amount that will be paid to liquidate the borrow\r\n   */\r\n  function getAmountToBeLiquidated(\r\n    address _cTokenBorrowed,\r\n    address _cTokenCollateral,\r\n    uint _actualRepayAmount\r\n  ) external view returns (uint) {\r\n    /*\r\n     * Get the exchange rate and calculate the number of collateral tokens to seize:\r\n     *  seizeAmount = actualRepayAmount * liquidationIncentive * priceBorrowed / priceCollateral\r\n     *  seizeTokens = seizeAmount / exchangeRate\r\n     *   = actualRepayAmount * (liquidationIncentive * priceBorrowed) / (priceCollateral * exchangeRate)\r\n     */\r\n    (uint result, uint cTokenCollateralAmount) = comptroller.liquidateCalculateSeizeTokens(_cTokenBorrowed,_cTokenCollateral,_actualRepayAmount);\r\n    require(result == 0, \"Error while calling the liquidateCalculateSeizeTokens() function\");\r\n    return cTokenCollateralAmount;\r\n  }\r\n\r\n  /**\r\n   * @dev Liquidate a borrow that is undercollateralized\r\n   * @param _borrower -> The address of the borrower that is holding an undercollateralized borrow\r\n   * @param _repayAmount -> The amount that will be paid to liquidate the borrow\r\n   * @param _cTokenCollateral -> The address of the collateral cToken that will be given to the liquidator in exchange for liquidating the borrow\r\n   */\r\n  function liquidate(address _borrower, uint _repayAmount, address _cTokenCollateral) external {\r\n    tokenBorrow.transferFrom(msg.sender,address(this), _repayAmount);\r\n    tokenBorrow.approve(address(cTokenBorrow), _repayAmount);\r\n    require(cTokenBorrow.liquidateBorrow(_borrower, _repayAmount, _cTokenCollateral) == 0, \"Error while liquidating the borrow\");\r\n  }\r\n\r\n  // get amount liquidated\r\n  // not view function\r\n  function getSupplyBalance(address _cTokenCollateral) external returns (uint) {\r\n    return CErc20(_cTokenCollateral).balanceOfUnderlying(address(this));\r\n  }\r\n\r\n}",
  "sourcePath": "/mnt/c/pr0/blockchain-projects/mainnet-fork/Compound/contracts/CompoundLiquidate.sol",
  "compiler": {
    "name": "solc",
    "version": "0.8.11+commit.d7f03943.Emscripten.clang"
  },
  "schemaVersion": "3.4.4",
  "updatedAt": "2022-10-16T04:40:43.810Z",
  "devdoc": {
    "kind": "dev",
    "methods": {},
    "version": 1
  },
  "userdoc": {
    "kind": "user",
    "methods": {},
    "version": 1
  }
}