{
  "contractName": "CompoundERC20",
  "abi": [
    {
      "inputs": [
        {
          "internalType": "address",
          "name": "_token",
          "type": "address"
        },
        {
          "internalType": "address",
          "name": "_cToken",
          "type": "address"
        }
      ],
      "stateMutability": "nonpayable",
      "type": "constructor"
    },
    {
      "inputs": [],
      "name": "cToken",
      "outputs": [
        {
          "internalType": "contract CErc20",
          "name": "",
          "type": "address"
        }
      ],
      "stateMutability": "view",
      "type": "function"
    },
    {
      "inputs": [],
      "name": "comptroller",
      "outputs": [
        {
          "internalType": "contract Comptroller",
          "name": "",
          "type": "address"
        }
      ],
      "stateMutability": "view",
      "type": "function"
    },
    {
      "inputs": [],
      "name": "priceFeed",
      "outputs": [
        {
          "internalType": "contract PriceFeed",
          "name": "",
          "type": "address"
        }
      ],
      "stateMutability": "view",
      "type": "function"
    },
    {
      "inputs": [],
      "name": "token",
      "outputs": [
        {
          "internalType": "contract IERC20",
          "name": "",
          "type": "address"
        }
      ],
      "stateMutability": "view",
      "type": "function"
    },
    {
      "inputs": [
        {
          "internalType": "uint256",
          "name": "_amount",
          "type": "uint256"
        }
      ],
      "name": "supply",
      "outputs": [],
      "stateMutability": "nonpayable",
      "type": "function"
    },
    {
      "inputs": [],
      "name": "getCTokenBalance",
      "outputs": [
        {
          "internalType": "uint256",
          "name": "",
          "type": "uint256"
        }
      ],
      "stateMutability": "view",
      "type": "function"
    },
    {
      "inputs": [],
      "name": "getInfo",
      "outputs": [
        {
          "internalType": "uint256",
          "name": "exchangeRate",
          "type": "uint256"
        },
        {
          "internalType": "uint256",
          "name": "supplyRate",
          "type": "uint256"
        }
      ],
      "stateMutability": "nonpayable",
      "type": "function"
    },
    {
      "inputs": [],
      "name": "balanceOfUnderlying",
      "outputs": [
        {
          "internalType": "uint256",
          "name": "",
          "type": "uint256"
        }
      ],
      "stateMutability": "nonpayable",
      "type": "function"
    },
    {
      "inputs": [
        {
          "internalType": "uint256",
          "name": "_cTokenAmount",
          "type": "uint256"
        }
      ],
      "name": "redeem",
      "outputs": [],
      "stateMutability": "nonpayable",
      "type": "function"
    },
    {
      "inputs": [],
      "name": "getCollateralFactor",
      "outputs": [
        {
          "internalType": "uint256",
          "name": "",
          "type": "uint256"
        }
      ],
      "stateMutability": "view",
      "type": "function"
    },
    {
      "inputs": [],
      "name": "getAccountLiquidity",
      "outputs": [
        {
          "internalType": "uint256",
          "name": "liquidity",
          "type": "uint256"
        },
        {
          "internalType": "uint256",
          "name": "shortfall",
          "type": "uint256"
        }
      ],
      "stateMutability": "view",
      "type": "function"
    },
    {
      "inputs": [
        {
          "internalType": "address",
          "name": "_cToken",
          "type": "address"
        }
      ],
      "name": "getPriceFeed",
      "outputs": [
        {
          "internalType": "uint256",
          "name": "",
          "type": "uint256"
        }
      ],
      "stateMutability": "view",
      "type": "function"
    },
    {
      "inputs": [
        {
          "internalType": "address",
          "name": "_cTokenToBorrow",
          "type": "address"
        },
        {
          "internalType": "uint256",
          "name": "_decimals",
          "type": "uint256"
        }
      ],
      "name": "borrow",
      "outputs": [],
      "stateMutability": "nonpayable",
      "type": "function"
    },
    {
      "inputs": [
        {
          "internalType": "address",
          "name": "_cTokenBorrowed",
          "type": "address"
        }
      ],
      "name": "getBorrowedBalance",
      "outputs": [
        {
          "internalType": "uint256",
          "name": "",
          "type": "uint256"
        }
      ],
      "stateMutability": "nonpayable",
      "type": "function"
    },
    {
      "inputs": [
        {
          "internalType": "address",
          "name": "_cTokenBorrowed",
          "type": "address"
        }
      ],
      "name": "getBorrowRatePerBlock",
      "outputs": [
        {
          "internalType": "uint256",
          "name": "",
          "type": "uint256"
        }
      ],
      "stateMutability": "view",
      "type": "function"
    },
    {
      "inputs": [
        {
          "internalType": "address",
          "name": "_tokenBorrowed",
          "type": "address"
        },
        {
          "internalType": "address",
          "name": "_cTokenBorrowed",
          "type": "address"
        },
        {
          "internalType": "uint256",
          "name": "_amount",
          "type": "uint256"
        }
      ],
      "name": "repay",
      "outputs": [],
      "stateMutability": "nonpayable",
      "type": "function"
    }
  ],
  "bytecode": "0x6080604052733d9819210a31b4961b30ef54be2aed79b9c9cd3b600260006101000a81548173ffffffffffffffffffffffffffffffffffffffff021916908373ffffffffffffffffffffffffffffffffffffffff16021790555073922018674c12a7f0d394ebeef9b58f186cde13c1600360006101000a81548173ffffffffffffffffffffffffffffffffffffffff021916908373ffffffffffffffffffffffffffffffffffffffff160217905550348015620000bb57600080fd5b50604051620024db380380620024db8339818101604052810190620000e19190620001d4565b816000806101000a81548173ffffffffffffffffffffffffffffffffffffffff021916908373ffffffffffffffffffffffffffffffffffffffff16021790555080600160006101000a81548173ffffffffffffffffffffffffffffffffffffffff021916908373ffffffffffffffffffffffffffffffffffffffff16021790555050506200021b565b600080fd5b600073ffffffffffffffffffffffffffffffffffffffff82169050919050565b60006200019c826200016f565b9050919050565b620001ae816200018f565b8114620001ba57600080fd5b50565b600081519050620001ce81620001a3565b92915050565b60008060408385031215620001ee57620001ed6200016a565b5b6000620001fe85828601620001bd565b92505060206200021185828601620001bd565b9150509250929050565b6122b0806200022b6000396000f3fe608060405234801561001057600080fd5b50600436106101005760003560e01c80635fe3b56711610097578063c9ca7d3111610066578063c9ca7d311461027b578063db006a75146102ab578063e0fc629c146102c7578063fc0c546a146102f757610100565b80635fe3b5671461020357806369e527da14610221578063741bef1a1461023f5780638eae88541461025d57610100565b80634880f951116100d35780634880f9511461017a5780634b8a3529146101985780635a9b0b89146101b45780635b6cca80146101d357610100565b80631da649cf146101055780632fd4cda71461012157806335392b7114610140578063354030231461015e575b600080fd5b61011f600480360381019061011a91906113ca565b610315565b005b610129610457565b60405161013792919061142c565b60405180910390f35b610148610551565b6040516101559190611455565b60405180910390f35b61017860048036038101906101739190611470565b610624565b005b610182610869565b60405161018f9190611455565b60405180910390f35b6101b260048036038101906101ad919061149d565b61090e565b005b6101bc610e33565b6040516101ca92919061142c565b60405180910390f35b6101ed60048036038101906101e891906114dd565b610f64565b6040516101fa9190611455565b60405180910390f35b61020b611009565b6040516102189190611569565b60405180910390f35b61022961102f565b60405161023691906115a5565b60405180910390f35b610247611055565b60405161025491906115e1565b60405180910390f35b61026561107b565b6040516102729190611455565b60405180910390f35b610295600480360381019061029091906114dd565b61111e565b6040516102a29190611455565b60405180910390f35b6102c560048036038101906102c09190611470565b611196565b005b6102e160048036038101906102dc91906114dd565b611279565b6040516102ee9190611455565b60405180910390f35b6102ff6112fe565b60405161030c919061161d565b60405180910390f35b8273ffffffffffffffffffffffffffffffffffffffff1663095ea7b383836040518363ffffffff1660e01b8152600401610350929190611647565b6020604051808303816000875af115801561036f573d6000803e3d6000fd5b505050506040513d601f19601f8201168201806040525081019061039391906116a8565b5060008273ffffffffffffffffffffffffffffffffffffffff16630e752702836040518263ffffffff1660e01b81526004016103cf9190611455565b6020604051808303816000875af11580156103ee573d6000803e3d6000fd5b505050506040513d601f19601f8201168201806040525081019061041291906116ea565b14610452576040517f08c379a00000000000000000000000000000000000000000000000000000000081526004016104499061179a565b60405180910390fd5b505050565b6000806000806000600260009054906101000a900473ffffffffffffffffffffffffffffffffffffffff1673ffffffffffffffffffffffffffffffffffffffff16635ec88c79306040518263ffffffff1660e01b81526004016104ba91906117ba565b606060405180830381865afa1580156104d7573d6000803e3d6000fd5b505050506040513d601f19601f820116820180604052508101906104fb91906117d5565b92509250925060008314610544576040517f08c379a000000000000000000000000000000000000000000000000000000000815260040161053b9061189a565b60405180910390fd5b8181945094505050509091565b600080600080600260009054906101000a900473ffffffffffffffffffffffffffffffffffffffff1673ffffffffffffffffffffffffffffffffffffffff16638e8f294b600160009054906101000a900473ffffffffffffffffffffffffffffffffffffffff166040518263ffffffff1660e01b81526004016105d491906117ba565b606060405180830381865afa1580156105f1573d6000803e3d6000fd5b505050506040513d601f19601f8201168201806040525081019061061591906118ba565b92509250925081935050505090565b60008054906101000a900473ffffffffffffffffffffffffffffffffffffffff1673ffffffffffffffffffffffffffffffffffffffff166323b872dd3330846040518463ffffffff1660e01b81526004016106819392919061190d565b6020604051808303816000875af11580156106a0573d6000803e3d6000fd5b505050506040513d601f19601f820116820180604052508101906106c491906116a8565b5060008054906101000a900473ffffffffffffffffffffffffffffffffffffffff1673ffffffffffffffffffffffffffffffffffffffff1663095ea7b3600160009054906101000a900473ffffffffffffffffffffffffffffffffffffffff16836040518363ffffffff1660e01b8152600401610742929190611647565b6020604051808303816000875af1158015610761573d6000803e3d6000fd5b505050506040513d601f19601f8201168201806040525081019061078591906116a8565b506000600160009054906101000a900473ffffffffffffffffffffffffffffffffffffffff1673ffffffffffffffffffffffffffffffffffffffff1663a0712d68836040518263ffffffff1660e01b81526004016107e39190611455565b6020604051808303816000875af1158015610802573d6000803e3d6000fd5b505050506040513d601f19601f8201168201806040525081019061082691906116ea565b14610866576040517f08c379a000000000000000000000000000000000000000000000000000000000815260040161085d906119dc565b60405180910390fd5b50565b6000600160009054906101000a900473ffffffffffffffffffffffffffffffffffffffff1673ffffffffffffffffffffffffffffffffffffffff16633af9e669306040518263ffffffff1660e01b81526004016108c691906117ba565b6020604051808303816000875af11580156108e5573d6000803e3d6000fd5b505050506040513d601f19601f8201168201806040525081019061090991906116ea565b905090565b6000600167ffffffffffffffff81111561092b5761092a6119fc565b5b6040519080825280602002602001820160405280156109595781602001602082028036833780820191505090505b509050600160009054906101000a900473ffffffffffffffffffffffffffffffffffffffff168160008151811061099357610992611a2b565b5b602002602001019073ffffffffffffffffffffffffffffffffffffffff16908173ffffffffffffffffffffffffffffffffffffffff16815250506000600260009054906101000a900473ffffffffffffffffffffffffffffffffffffffff1673ffffffffffffffffffffffffffffffffffffffff1663c2998238836040518263ffffffff1660e01b8152600401610a2a9190611b18565b6000604051808303816000875af1158015610a49573d6000803e3d6000fd5b505050506040513d6000823e3d601f19601f82011682018060405250810190610a729190611c64565b9050600081600081518110610a8a57610a89611a2b565b5b602002602001015114610ad2576040517f08c379a0000000000000000000000000000000000000000000000000000000008152600401610ac990611cf9565b60405180910390fd5b6000806000600260009054906101000a900473ffffffffffffffffffffffffffffffffffffffff1673ffffffffffffffffffffffffffffffffffffffff16635ec88c79306040518263ffffffff1660e01b8152600401610b3291906117ba565b606060405180830381865afa158015610b4f573d6000803e3d6000fd5b505050506040513d601f19601f82011682018060405250810190610b7391906117d5565b92509250925060008314610bbc576040517f08c379a0000000000000000000000000000000000000000000000000000000008152600401610bb390611d65565b60405180910390fd5b60008114610bff576040517f08c379a0000000000000000000000000000000000000000000000000000000008152600401610bf690611dd1565b60405180910390fd5b60008211610c42576040517f08c379a0000000000000000000000000000000000000000000000000000000008152600401610c3990611e3d565b60405180910390fd5b6000600360009054906101000a900473ffffffffffffffffffffffffffffffffffffffff1673ffffffffffffffffffffffffffffffffffffffff1663fc57d4df896040518263ffffffff1660e01b8152600401610c9f91906117ba565b602060405180830381865afa158015610cbc573d6000803e3d6000fd5b505050506040513d601f19601f82011682018060405250810190610ce091906116ea565b905060008188600a610cf29190611fbf565b85610cfd919061200a565b610d079190612093565b905060008111610d4c576040517f08c379a0000000000000000000000000000000000000000000000000000000008152600401610d4390612110565b60405180910390fd5b60006064603283610d5d919061200a565b610d679190612093565b905060008a73ffffffffffffffffffffffffffffffffffffffff1663c5ebeaec836040518263ffffffff1660e01b8152600401610da49190611455565b6020604051808303816000875af1158015610dc3573d6000803e3d6000fd5b505050506040513d601f19601f82011682018060405250810190610de791906116ea565b14610e27576040517f08c379a0000000000000000000000000000000000000000000000000000000008152600401610e1e906121a2565b60405180910390fd5b50505050505050505050565b600080600160009054906101000a900473ffffffffffffffffffffffffffffffffffffffff1673ffffffffffffffffffffffffffffffffffffffff1663bd6d894d6040518163ffffffff1660e01b81526004016020604051808303816000875af1158015610ea5573d6000803e3d6000fd5b505050506040513d601f19601f82011682018060405250810190610ec991906116ea565b9150600160009054906101000a900473ffffffffffffffffffffffffffffffffffffffff1673ffffffffffffffffffffffffffffffffffffffff1663ae9d70b06040518163ffffffff1660e01b81526004016020604051808303816000875af1158015610f3a573d6000803e3d6000fd5b505050506040513d601f19601f82011682018060405250810190610f5e91906116ea565b90509091565b6000600360009054906101000a900473ffffffffffffffffffffffffffffffffffffffff1673ffffffffffffffffffffffffffffffffffffffff1663fc57d4df836040518263ffffffff1660e01b8152600401610fc191906117ba565b602060405180830381865afa158015610fde573d6000803e3d6000fd5b505050506040513d601f19601f8201168201806040525081019061100291906116ea565b9050919050565b600260009054906101000a900473ffffffffffffffffffffffffffffffffffffffff1681565b600160009054906101000a900473ffffffffffffffffffffffffffffffffffffffff1681565b600360009054906101000a900473ffffffffffffffffffffffffffffffffffffffff1681565b6000600160009054906101000a900473ffffffffffffffffffffffffffffffffffffffff1673ffffffffffffffffffffffffffffffffffffffff166370a08231306040518263ffffffff1660e01b81526004016110d891906117ba565b602060405180830381865afa1580156110f5573d6000803e3d6000fd5b505050506040513d601f19601f8201168201806040525081019061111991906116ea565b905090565b60008173ffffffffffffffffffffffffffffffffffffffff1663f8f9da286040518163ffffffff1660e01b8152600401602060405180830381865afa15801561116b573d6000803e3d6000fd5b505050506040513d601f19601f8201168201806040525081019061118f91906116ea565b9050919050565b6000600160009054906101000a900473ffffffffffffffffffffffffffffffffffffffff1673ffffffffffffffffffffffffffffffffffffffff1663db006a75836040518263ffffffff1660e01b81526004016111f39190611455565b6020604051808303816000875af1158015611212573d6000803e3d6000fd5b505050506040513d601f19601f8201168201806040525081019061123691906116ea565b14611276576040517f08c379a000000000000000000000000000000000000000000000000000000000815260040161126d9061225a565b60405180910390fd5b50565b60008173ffffffffffffffffffffffffffffffffffffffff166317bfdfbc306040518263ffffffff1660e01b81526004016112b491906117ba565b6020604051808303816000875af11580156112d3573d6000803e3d6000fd5b505050506040513d601f19601f820116820180604052508101906112f791906116ea565b9050919050565b60008054906101000a900473ffffffffffffffffffffffffffffffffffffffff1681565b6000604051905090565b600080fd5b600080fd5b600073ffffffffffffffffffffffffffffffffffffffff82169050919050565b600061136182611336565b9050919050565b61137181611356565b811461137c57600080fd5b50565b60008135905061138e81611368565b92915050565b6000819050919050565b6113a781611394565b81146113b257600080fd5b50565b6000813590506113c48161139e565b92915050565b6000806000606084860312156113e3576113e261132c565b5b60006113f18682870161137f565b93505060206114028682870161137f565b9250506040611413868287016113b5565b9150509250925092565b61142681611394565b82525050565b6000604082019050611441600083018561141d565b61144e602083018461141d565b9392505050565b600060208201905061146a600083018461141d565b92915050565b6000602082840312156114865761148561132c565b5b6000611494848285016113b5565b91505092915050565b600080604083850312156114b4576114b361132c565b5b60006114c28582860161137f565b92505060206114d3858286016113b5565b9150509250929050565b6000602082840312156114f3576114f261132c565b5b60006115018482850161137f565b91505092915050565b6000819050919050565b600061152f61152a61152584611336565b61150a565b611336565b9050919050565b600061154182611514565b9050919050565b600061155382611536565b9050919050565b61156381611548565b82525050565b600060208201905061157e600083018461155a565b92915050565b600061158f82611536565b9050919050565b61159f81611584565b82525050565b60006020820190506115ba6000830184611596565b92915050565b60006115cb82611536565b9050919050565b6115db816115c0565b82525050565b60006020820190506115f660008301846115d2565b92915050565b600061160782611536565b9050919050565b611617816115fc565b82525050565b6000602082019050611632600083018461160e565b92915050565b61164181611356565b82525050565b600060408201905061165c6000830185611638565b611669602083018461141d565b9392505050565b60008115159050919050565b61168581611670565b811461169057600080fd5b50565b6000815190506116a28161167c565b92915050565b6000602082840312156116be576116bd61132c565b5b60006116cc84828501611693565b91505092915050565b6000815190506116e48161139e565b92915050565b600060208284031215611700576116ff61132c565b5b600061170e848285016116d5565b91505092915050565b600082825260208201905092915050565b7f4572726f72207768696c652063616c6c696e6720746865207265706179426f7260008201527f726f772066756e6374696f6e0000000000000000000000000000000000000000602082015250565b6000611784602c83611717565b915061178f82611728565b604082019050919050565b600060208201905081810360008301526117b381611777565b9050919050565b60006020820190506117cf6000830184611638565b92915050565b6000806000606084860312156117ee576117ed61132c565b5b60006117fc868287016116d5565b935050602061180d868287016116d5565b925050604061181e868287016116d5565b9150509250925092565b7f4572726f72207768696c652067657474696e6720746865206163636f756e742060008201527f6c69717569646974790000000000000000000000000000000000000000000000602082015250565b6000611884602983611717565b915061188f82611828565b604082019050919050565b600060208201905081810360008301526118b381611877565b9050919050565b6000806000606084860312156118d3576118d261132c565b5b60006118e186828701611693565b93505060206118f2868287016116d5565b925050604061190386828701611693565b9150509250925092565b60006060820190506119226000830186611638565b61192f6020830185611638565b61193c604083018461141d565b949350505050565b7f416e206572726f72206f636375726564207768696c6520737570706c79696e6760008201527f2074686520746f6b656e7320746f2074686520436f6d706f756e642070726f7460208201527f6f636f6c00000000000000000000000000000000000000000000000000000000604082015250565b60006119c6604483611717565b91506119d182611944565b606082019050919050565b600060208201905081810360008301526119f5816119b9565b9050919050565b7f4e487b7100000000000000000000000000000000000000000000000000000000600052604160045260246000fd5b7f4e487b7100000000000000000000000000000000000000000000000000000000600052603260045260246000fd5b600081519050919050565b600082825260208201905092915050565b6000819050602082019050919050565b611a8f81611356565b82525050565b6000611aa18383611a86565b60208301905092915050565b6000602082019050919050565b6000611ac582611a5a565b611acf8185611a65565b9350611ada83611a76565b8060005b83811015611b0b578151611af28882611a95565b9750611afd83611aad565b925050600181019050611ade565b5085935050505092915050565b60006020820190508181036000830152611b328184611aba565b905092915050565b600080fd5b6000601f19601f8301169050919050565b611b5982611b3f565b810181811067ffffffffffffffff82111715611b7857611b776119fc565b5b80604052505050565b6000611b8b611322565b9050611b978282611b50565b919050565b600067ffffffffffffffff821115611bb757611bb66119fc565b5b602082029050602081019050919050565b600080fd5b6000611be0611bdb84611b9c565b611b81565b90508083825260208201905060208402830185811115611c0357611c02611bc8565b5b835b81811015611c2c5780611c1888826116d5565b845260208401935050602081019050611c05565b5050509392505050565b600082601f830112611c4b57611c4a611b3a565b5b8151611c5b848260208601611bcd565b91505092915050565b600060208284031215611c7a57611c7961132c565b5b600082015167ffffffffffffffff811115611c9857611c97611331565b5b611ca484828501611c36565b91505092915050565b7f436f6d7074726f6c6c65722e656e7465724d61726b657473206661696c65642e600082015250565b6000611ce3602083611717565b9150611cee82611cad565b602082019050919050565b60006020820190508181036000830152611d1281611cd6565b9050919050565b7f6572726f72000000000000000000000000000000000000000000000000000000600082015250565b6000611d4f600583611717565b9150611d5a82611d19565b602082019050919050565b60006020820190508181036000830152611d7e81611d42565b9050919050565b7f73686f727466616c6c203e203000000000000000000000000000000000000000600082015250565b6000611dbb600d83611717565b9150611dc682611d85565b602082019050919050565b60006020820190508181036000830152611dea81611dae565b9050919050565b7f6c6971756964697479203d203000000000000000000000000000000000000000600082015250565b6000611e27600d83611717565b9150611e3282611df1565b602082019050919050565b60006020820190508181036000830152611e5681611e1a565b9050919050565b7f4e487b7100000000000000000000000000000000000000000000000000000000600052601160045260246000fd5b60008160011c9050919050565b6000808291508390505b6001851115611ee357808604811115611ebf57611ebe611e5d565b5b6001851615611ece5780820291505b8081029050611edc85611e8c565b9450611ea3565b94509492505050565b600082611efc5760019050611fb8565b81611f0a5760009050611fb8565b8160018114611f205760028114611f2a57611f59565b6001915050611fb8565b60ff841115611f3c57611f3b611e5d565b5b8360020a915084821115611f5357611f52611e5d565b5b50611fb8565b5060208310610133831016604e8410600b8410161715611f8e5782820a905083811115611f8957611f88611e5d565b5b611fb8565b611f9b8484846001611e99565b92509050818404811115611fb257611fb1611e5d565b5b81810290505b9392505050565b6000611fca82611394565b9150611fd583611394565b92506120027fffffffffffffffffffffffffffffffffffffffffffffffffffffffffffffffff8484611eec565b905092915050565b600061201582611394565b915061202083611394565b9250817fffffffffffffffffffffffffffffffffffffffffffffffffffffffffffffffff048311821515161561205957612058611e5d565b5b828202905092915050565b7f4e487b7100000000000000000000000000000000000000000000000000000000600052601260045260246000fd5b600061209e82611394565b91506120a983611394565b9250826120b9576120b8612064565b5b828204905092915050565b7f4572726f722c206d617820626f72726f77203d20300000000000000000000000600082015250565b60006120fa601583611717565b9150612105826120c4565b602082019050919050565b60006020820190508181036000830152612129816120ed565b9050919050565b7f4572726f72207768696c6520626f72726f77696e672074686520353025206f6660008201527f20746865206d617820626f72726f7720616d6f756e7400000000000000000000602082015250565b600061218c603683611717565b915061219782612130565b604082019050919050565b600060208201905081810360008301526121bb8161217f565b9050919050565b7f416e206572726f72206f636375726564207768696c652072656465656d696e6760008201527f20746865206261736520746f6b656e732066726f6d20746520436f6d706f756e60208201527f642070726f746f636f6c00000000000000000000000000000000000000000000604082015250565b6000612244604a83611717565b915061224f826121c2565b606082019050919050565b6000602082019050818103600083015261227381612237565b905091905056fea264697066735822122096f97ee712d35ba0a681e138d7789eb711f61350698ee4b1470f7004e337e49564736f6c634300080b0033",
  "immutableReferences": {},
  "source": "// SPDX-License-Identifier: MIT\r\npragma solidity ^0.8.0;\r\n\r\nimport \"./interfaces/compound.sol\";\r\nimport \"@openzeppelin/contracts/token/ERC20/IERC20.sol\";\r\n\r\ncontract CompoundERC20 {\r\n  IERC20 public token;\r\n  CErc20 public cToken;\r\n\r\n  Comptroller public comptroller = Comptroller(0x3d9819210A31b4961b30EF54bE2aeD79B9c9Cd3B);\r\n  PriceFeed public priceFeed = PriceFeed(0x922018674c12a7F0D394ebEEf9B58F186CdE13c1);\r\n\r\n  /**\r\n  * @dev constructor() This constructor initializes the variables token & cToken with their corresponding addresses, so they can be used without the need to specify the address on each call!\r\n  */\r\n  constructor(address _token, address _cToken) {\r\n    token = IERC20(_token);\r\n    cToken = CErc20(_cToken);\r\n  }\r\n\r\n  /**\r\n  * @dev supply() function is used to lend tokens to the protocol & in exchange the lender will receive cTokens that will be accruing interests as the times goes\r\n  */\r\n  function supply(uint _amount) external{\r\n    token.transferFrom(msg.sender,address(this),_amount); //Transfering the tokens from the caller address into this contract\r\n    token.approve(address(cToken),_amount);\r\n    require(cToken.mint(_amount) == 0, \"An error occured while supplying the tokens to the Compound protocol\");\r\n  }\r\n\r\n  function getCTokenBalance() external view returns (uint) {\r\n    return cToken.balanceOf(address(this));\r\n  }\r\n\r\n  function getInfo() external returns(uint exchangeRate, uint supplyRate) {\r\n    exchangeRate = cToken.exchangeRateCurrent();\r\n    supplyRate = cToken.supplyRatePerBlock();\r\n  }\r\n\r\n  /**\r\n  * @dev balanceOfUnderlying() function is used to check the total balance of the underlying token from a cToken that an address holds\r\n  */\r\n  function balanceOfUnderlying() external returns (uint) {\r\n    return cToken.balanceOfUnderlying(address(this));\r\n  }\r\n\r\n  /**\r\n  * @dev redeem() function is used to exchange cTokens for the underlying tokens that were lended to the protocol + all the interests that were generated\r\n  */\r\n  function redeem(uint _cTokenAmount) external {\r\n    require(cToken.redeem(_cTokenAmount) == 0, \"An error occured while redeeming the base tokens from te Compound protocol\");\r\n  }\r\n\r\n  // borrow and repay //\r\n\r\n  function getCollateralFactor() external view returns (uint) {\r\n    (bool isListed, uint colFactor, bool isComped) = comptroller.markets(address(cToken));\r\n    return colFactor; // divide by 1e18 to get in %\r\n  }\r\n\r\n  // account liquidity - calculate how much can I borrow?\r\n  // sum of (supplied balance of market entered * col factor) - borrowed\r\n  function getAccountLiquidity() external view returns (uint liquidity, uint shortfall) {\r\n    // liquidity and shortfall in USD scaled up by 1e18\r\n    (uint error, uint _liquidity, uint _shortfall) = comptroller.getAccountLiquidity(address(this));\r\n    require(error == 0, \"Error while getting the account liquidity\");\r\n    // normal circumstance - liquidity > 0 and shortfall == 0\r\n    // liquidity > 0 means account can borrow up to `liquidity`\r\n    // shortfall > 0 is subject to liquidation, you borrowed over limit\r\n    return (_liquidity, _shortfall);\r\n  }\r\n\r\n  function getPriceFeed(address _cToken) external view returns (uint) {\r\n    return priceFeed.getUnderlyingPrice(address(_cToken));\r\n  }\r\n\r\n  // enter market and borrow a 50% of the max borr0w amount\r\n  function borrow(address _cTokenToBorrow, uint _decimals) external {\r\n    // enter the supply market so you can borrow another type of asset\r\n    //Enter the market --->  means using the cTokens that were given to you when you lend out a base token to the compound protocol and add those cTokens as your entrance to the market\r\n    address[] memory cTokens = new address[](1);\r\n    cTokens[0] = address(cToken);\r\n    uint[] memory errors = comptroller.enterMarkets(cTokens);\r\n    require(errors[0] == 0, \"Comptroller.enterMarkets failed.\");\r\n\r\n    // Check liquidity after entering the market\r\n    // Once you entered the market by sending your cToken(s) to the comptroller, your account's liquidity was increased in terms of usd value.\r\n    (uint error, uint liquidity, uint shortfall) = comptroller.getAccountLiquidity(address(this));\r\n    // Validate that the below criterias are met, otherwise, the account is not elegible to ask for a borrow\r\n    // normal circumstance - liquidity > 0 and shortfall == 0\r\n    // liquidity > 0 means account can borrow up to `liquidity`\r\n    // shortfall > 0 is subject to liquidation, you borrowed over limit\r\n    require(error == 0, \"error\");\r\n    require(shortfall == 0, \"shortfall > 0\");\r\n    require(liquidity > 0, \"liquidity = 0\");\r\n\r\n    // Calculate max borrow for the _cTokenToBorrow\r\n    uint price = priceFeed.getUnderlyingPrice(_cTokenToBorrow);\r\n\r\n    // liquidity - USD scaled up by 1e18\r\n    // price - USD scaled up by 1e18\r\n    // decimals - decimals of token to borrow\r\n    uint maxBorrow = (liquidity * (10**_decimals)) / price;\r\n    require(maxBorrow > 0, \"Error, max borrow = 0\");\r\n\r\n    //Calculate the 50% of the max borrow\r\n    uint amount = (maxBorrow * 50) / 100;\r\n    // borrow 50% of max borrow\r\n    require(CErc20(_cTokenToBorrow).borrow(amount) == 0, \"Error while borrowing the 50% of the max borrow amount\");\r\n\r\n  }\r\n\r\n  /**\r\n  * @dev getBorrowedBalance() get the number of borrowed tokens plus all the interests that the original borrowed ammount has accumulated\r\n  * @return uint that represents the number of borrowed tokens plus all the interests that the original borrowed ammount has accumulated\r\n  */\r\n  function getBorrowedBalance(address _cTokenBorrowed) public returns (uint) {\r\n    return CErc20(_cTokenBorrowed).borrowBalanceCurrent(address(this));\r\n  }\r\n\r\n  // borrow rate\r\n  function getBorrowRatePerBlock(address _cTokenBorrowed) external view returns (uint) {\r\n    // scaled up by 1e18\r\n    return CErc20(_cTokenBorrowed).borrowRatePerBlock();\r\n  }\r\n\r\n  // repay borrow\r\n  function repay(\r\n    address _tokenBorrowed,\r\n    address _cTokenBorrowed,\r\n    uint _amount\r\n  ) external {\r\n    // Is a requirement that the contract that will call the repayBorrow() function from the cTokenBorrowed contract has enough cTokens in its balance!\r\n    IERC20(_tokenBorrowed).approve(_cTokenBorrowed,_amount);\r\n    // _amount = 2 ** 256 - 1 means repay all\r\n    require(CErc20(_cTokenBorrowed).repayBorrow(_amount) == 0, \"Error while calling the repayBorrow function\");\r\n  }\r\n\r\n}",
  "sourcePath": "/mnt/c/pr0/blockchain-projects/mainnet-fork/Compound/contracts/CompoundERC20.sol",
  "compiler": {
    "name": "solc",
    "version": "0.8.11+commit.d7f03943.Emscripten.clang"
  },
  "schemaVersion": "3.4.4",
  "updatedAt": "2022-10-17T01:33:00.914Z",
  "devdoc": {
    "kind": "dev",
    "methods": {
      "balanceOfUnderlying()": {
        "details": "balanceOfUnderlying() function is used to check the total balance of the underlying token from a cToken that an address holds"
      },
      "constructor": {
        "details": "constructor() This constructor initializes the variables token & cToken with their corresponding addresses, so they can be used without the need to specify the address on each call!"
      },
      "getBorrowedBalance(address)": {
        "details": "getBorrowedBalance() get the number of borrowed tokens plus all the interests that the original borrowed ammount has accumulated",
        "returns": {
          "_0": "uint that represents the number of borrowed tokens plus all the interests that the original borrowed ammount has accumulated"
        }
      },
      "redeem(uint256)": {
        "details": "redeem() function is used to exchange cTokens for the underlying tokens that were lended to the protocol + all the interests that were generated"
      },
      "supply(uint256)": {
        "details": "supply() function is used to lend tokens to the protocol & in exchange the lender will receive cTokens that will be accruing interests as the times goes"
      }
    },
    "version": 1
  },
  "userdoc": {
    "kind": "user",
    "methods": {},
    "version": 1
  }
}