{
  "contractName": "CompoundLiquidator",
  "abi": [
    {
      "inputs": [
        {
          "internalType": "address",
          "name": "_tokenBorrow",
          "type": "address"
        },
        {
          "internalType": "address",
          "name": "_cTokenBorrow",
          "type": "address"
        }
      ],
      "stateMutability": "nonpayable",
      "type": "constructor"
    },
    {
      "inputs": [],
      "name": "cTokenBorrow",
      "outputs": [
        {
          "internalType": "contract CErc20",
          "name": "",
          "type": "address"
        }
      ],
      "stateMutability": "view",
      "type": "function"
    },
    {
      "inputs": [],
      "name": "comptroller",
      "outputs": [
        {
          "internalType": "contract Comptroller",
          "name": "",
          "type": "address"
        }
      ],
      "stateMutability": "view",
      "type": "function"
    },
    {
      "inputs": [],
      "name": "tokenBorrow",
      "outputs": [
        {
          "internalType": "contract IERC20",
          "name": "",
          "type": "address"
        }
      ],
      "stateMutability": "view",
      "type": "function"
    },
    {
      "inputs": [],
      "name": "getCloseFactor",
      "outputs": [
        {
          "internalType": "uint256",
          "name": "",
          "type": "uint256"
        }
      ],
      "stateMutability": "view",
      "type": "function"
    },
    {
      "inputs": [],
      "name": "getLiquidationIncentive",
      "outputs": [
        {
          "internalType": "uint256",
          "name": "",
          "type": "uint256"
        }
      ],
      "stateMutability": "view",
      "type": "function"
    },
    {
      "inputs": [
        {
          "internalType": "address",
          "name": "_cTokenBorrowed",
          "type": "address"
        },
        {
          "internalType": "address",
          "name": "_cTokenCollateral",
          "type": "address"
        },
        {
          "internalType": "uint256",
          "name": "_actualRepayAmount",
          "type": "uint256"
        }
      ],
      "name": "getAmountToBeLiquidated",
      "outputs": [
        {
          "internalType": "uint256",
          "name": "",
          "type": "uint256"
        }
      ],
      "stateMutability": "view",
      "type": "function"
    },
    {
      "inputs": [
        {
          "internalType": "address",
          "name": "_borrower",
          "type": "address"
        },
        {
          "internalType": "uint256",
          "name": "_repayAmount",
          "type": "uint256"
        },
        {
          "internalType": "address",
          "name": "_cTokenCollateral",
          "type": "address"
        }
      ],
      "name": "liquidate",
      "outputs": [],
      "stateMutability": "nonpayable",
      "type": "function"
    },
    {
      "inputs": [
        {
          "internalType": "address",
          "name": "_cTokenCollateral",
          "type": "address"
        }
      ],
      "name": "getSupplyBalance",
      "outputs": [
        {
          "internalType": "uint256",
          "name": "",
          "type": "uint256"
        }
      ],
      "stateMutability": "nonpayable",
      "type": "function"
    }
  ],
  "bytecode": "0x6080604052733d9819210a31b4961b30ef54be2aed79b9c9cd3b6000806101000a81548173ffffffffffffffffffffffffffffffffffffffff021916908373ffffffffffffffffffffffffffffffffffffffff16021790555034801561006457600080fd5b50604051610e63380380610e6383398181016040528101906100869190610172565b81600160006101000a81548173ffffffffffffffffffffffffffffffffffffffff021916908373ffffffffffffffffffffffffffffffffffffffff16021790555080600260006101000a81548173ffffffffffffffffffffffffffffffffffffffff021916908373ffffffffffffffffffffffffffffffffffffffff16021790555050506101b2565b600080fd5b600073ffffffffffffffffffffffffffffffffffffffff82169050919050565b600061013f82610114565b9050919050565b61014f81610134565b811461015a57600080fd5b50565b60008151905061016c81610146565b92915050565b600080604083850312156101895761018861010f565b5b60006101978582860161015d565b92505060206101a88582860161015d565b9150509250929050565b610ca2806101c16000396000f3fe608060405234801561001057600080fd5b50600436106100885760003560e01c8063761c66d11161005b578063761c66d114610103578063c29a1d5814610133578063f38e266a14610151578063fd6bac701461018157610088565b806324d6db471461008d5780634914c008146100ab5780634e21a7a3146100c75780635fe3b567146100e5575b600080fd5b61009561019f565b6040516100a29190610786565b60405180910390f35b6100c560048036038101906100c0919061081a565b6101c5565b005b6100cf610414565b6040516100dc919061087c565b60405180910390f35b6100ed6104ab565b6040516100fa91906108b8565b60405180910390f35b61011d600480360381019061011891906108d3565b6104cf565b60405161012a919061087c565b60405180910390f35b61013b6105c5565b604051610148919061087c565b60405180910390f35b61016b60048036038101906101669190610926565b61065c565b604051610178919061087c565b60405180910390f35b6101896106e1565b6040516101969190610974565b60405180910390f35b600160009054906101000a900473ffffffffffffffffffffffffffffffffffffffff1681565b600160009054906101000a900473ffffffffffffffffffffffffffffffffffffffff1673ffffffffffffffffffffffffffffffffffffffff166323b872dd3330856040518463ffffffff1660e01b81526004016102249392919061099e565b6020604051808303816000875af1158015610243573d6000803e3d6000fd5b505050506040513d601f19601f820116820180604052508101906102679190610a0d565b50600160009054906101000a900473ffffffffffffffffffffffffffffffffffffffff1673ffffffffffffffffffffffffffffffffffffffff1663095ea7b3600260009054906101000a900473ffffffffffffffffffffffffffffffffffffffff16846040518363ffffffff1660e01b81526004016102e7929190610a3a565b6020604051808303816000875af1158015610306573d6000803e3d6000fd5b505050506040513d601f19601f8201168201806040525081019061032a9190610a0d565b506000600260009054906101000a900473ffffffffffffffffffffffffffffffffffffffff1673ffffffffffffffffffffffffffffffffffffffff1663f5e3c4628585856040518463ffffffff1660e01b815260040161038c93929190610a63565b6020604051808303816000875af11580156103ab573d6000803e3d6000fd5b505050506040513d601f19601f820116820180604052508101906103cf9190610aaf565b1461040f576040517f08c379a000000000000000000000000000000000000000000000000000000000815260040161040690610b5f565b60405180910390fd5b505050565b60008060009054906101000a900473ffffffffffffffffffffffffffffffffffffffff1673ffffffffffffffffffffffffffffffffffffffff1663e87554466040518163ffffffff1660e01b8152600401602060405180830381865afa158015610482573d6000803e3d6000fd5b505050506040513d601f19601f820116820180604052508101906104a69190610aaf565b905090565b60008054906101000a900473ffffffffffffffffffffffffffffffffffffffff1681565b60008060008060009054906101000a900473ffffffffffffffffffffffffffffffffffffffff1673ffffffffffffffffffffffffffffffffffffffff1663c488847b8787876040518463ffffffff1660e01b81526004016105329392919061099e565b6040805180830381865afa15801561054e573d6000803e3d6000fd5b505050506040513d601f19601f820116820180604052508101906105729190610b7f565b91509150600082146105b9576040517f08c379a00000000000000000000000000000000000000000000000000000000081526004016105b090610c31565b60405180910390fd5b80925050509392505050565b60008060009054906101000a900473ffffffffffffffffffffffffffffffffffffffff1673ffffffffffffffffffffffffffffffffffffffff16634ada90af6040518163ffffffff1660e01b8152600401602060405180830381865afa158015610633573d6000803e3d6000fd5b505050506040513d601f19601f820116820180604052508101906106579190610aaf565b905090565b60008173ffffffffffffffffffffffffffffffffffffffff16633af9e669306040518263ffffffff1660e01b81526004016106979190610c51565b6020604051808303816000875af11580156106b6573d6000803e3d6000fd5b505050506040513d601f19601f820116820180604052508101906106da9190610aaf565b9050919050565b600260009054906101000a900473ffffffffffffffffffffffffffffffffffffffff1681565b600073ffffffffffffffffffffffffffffffffffffffff82169050919050565b6000819050919050565b600061074c61074761074284610707565b610727565b610707565b9050919050565b600061075e82610731565b9050919050565b600061077082610753565b9050919050565b61078081610765565b82525050565b600060208201905061079b6000830184610777565b92915050565b600080fd5b60006107b182610707565b9050919050565b6107c1816107a6565b81146107cc57600080fd5b50565b6000813590506107de816107b8565b92915050565b6000819050919050565b6107f7816107e4565b811461080257600080fd5b50565b600081359050610814816107ee565b92915050565b600080600060608486031215610833576108326107a1565b5b6000610841868287016107cf565b935050602061085286828701610805565b9250506040610863868287016107cf565b9150509250925092565b610876816107e4565b82525050565b6000602082019050610891600083018461086d565b92915050565b60006108a282610753565b9050919050565b6108b281610897565b82525050565b60006020820190506108cd60008301846108a9565b92915050565b6000806000606084860312156108ec576108eb6107a1565b5b60006108fa868287016107cf565b935050602061090b868287016107cf565b925050604061091c86828701610805565b9150509250925092565b60006020828403121561093c5761093b6107a1565b5b600061094a848285016107cf565b91505092915050565b600061095e82610753565b9050919050565b61096e81610953565b82525050565b60006020820190506109896000830184610965565b92915050565b610998816107a6565b82525050565b60006060820190506109b3600083018661098f565b6109c0602083018561098f565b6109cd604083018461086d565b949350505050565b60008115159050919050565b6109ea816109d5565b81146109f557600080fd5b50565b600081519050610a07816109e1565b92915050565b600060208284031215610a2357610a226107a1565b5b6000610a31848285016109f8565b91505092915050565b6000604082019050610a4f600083018561098f565b610a5c602083018461086d565b9392505050565b6000606082019050610a78600083018661098f565b610a85602083018561086d565b610a92604083018461098f565b949350505050565b600081519050610aa9816107ee565b92915050565b600060208284031215610ac557610ac46107a1565b5b6000610ad384828501610a9a565b91505092915050565b600082825260208201905092915050565b7f4572726f72207768696c65206c69717569646174696e672074686520626f727260008201527f6f77000000000000000000000000000000000000000000000000000000000000602082015250565b6000610b49602283610adc565b9150610b5482610aed565b604082019050919050565b60006020820190508181036000830152610b7881610b3c565b9050919050565b60008060408385031215610b9657610b956107a1565b5b6000610ba485828601610a9a565b9250506020610bb585828601610a9a565b9150509250929050565b7f4572726f72207768696c652063616c6c696e6720746865206c6971756964617460008201527f6543616c63756c6174655365697a65546f6b656e7328292066756e6374696f6e602082015250565b6000610c1b604083610adc565b9150610c2682610bbf565b604082019050919050565b60006020820190508181036000830152610c4a81610c0e565b9050919050565b6000602082019050610c66600083018461098f565b9291505056fea26469706673582212205982eb814ea7ea0d55e6ed063306b11126f1d6e11f5cf5232d3761bb8dbd0e0564736f6c634300080b0033",
  "immutableReferences": {},
  "source": "// SPDX-License-Identifier: MIT\r\npragma solidity ^0.8;\r\n\r\nimport \"./interfaces/compound.sol\";\r\nimport \"@openzeppelin/contracts/token/ERC20/IERC20.sol\";\r\n\r\n// <---> The next operations will be performed using the contract:                    CompoundBorrower\r\n// supply tokens to the compound protocol\r\n// enter the market using the cTokens that the supplier received after supplying its tokens to the protocol\r\n// borrow max amount determiend by the total liquidity that was credited after entering the market\r\n// wait few blocks and let that : -------> borrowed balance > supplied balance * col factor     <----> When this happens, the borrow becomes subject to be liquidated!\r\n\r\n// <--> The last operation (The liquidation) will be executed using the contract:     CompoundLiquidator\r\n// liquidate \r\n\r\ncontract CompoundBorrower {\r\n  Comptroller public comptroller =\r\n    Comptroller(0x3d9819210A31b4961b30EF54bE2aeD79B9c9Cd3B);\r\n\r\n  PriceFeed public priceFeed = PriceFeed(0x922018674c12a7F0D394ebEEf9B58F186CdE13c1);\r\n\r\n  IERC20 public tokenSupply;\r\n  CErc20 public cTokenSupply;\r\n  IERC20 public tokenBorrow;\r\n  CErc20 public cTokenBorrow;\r\n\r\n  event Log(string message, uint val);\r\n\r\n  constructor(\r\n    address _tokenSupply,\r\n    address _cTokenSupply,\r\n    address _tokenBorrow,\r\n    address _cTokenBorrow\r\n  ) {\r\n    tokenSupply = IERC20(_tokenSupply);\r\n    cTokenSupply = CErc20(_cTokenSupply);\r\n\r\n    tokenBorrow = IERC20(_tokenBorrow);\r\n    cTokenBorrow = CErc20(_cTokenBorrow);\r\n  }\r\n\r\n  function supply(uint _amount) external {\r\n    tokenSupply.transferFrom(msg.sender, address(this), _amount);\r\n    tokenSupply.approve(address(cTokenSupply), _amount);\r\n    require(cTokenSupply.mint(_amount) == 0, \"mint failed\");\r\n  }\r\n\r\n  // not view function\r\n  function getSupplyBalance() external returns (uint) {\r\n    return cTokenSupply.balanceOfUnderlying(address(this));\r\n  }\r\n\r\n  function getCollateralFactor() external view returns (uint) {\r\n    (, uint colFactor, ) = comptroller.markets(address(cTokenSupply));\r\n    return colFactor; // divide by 1e18 to get in %\r\n  }\r\n\r\n  function getAccountLiquidity() external view returns (uint liquidity, uint shortfall) {\r\n    // liquidity and shortfall in USD scaled up by 1e18\r\n    (uint error, uint _liquidity, uint _shortfall) = comptroller.getAccountLiquidity(\r\n      address(this)\r\n    );\r\n    require(error == 0, \"error\");\r\n    return (_liquidity, _shortfall);\r\n  }\r\n\r\n  function getPriceFeed(address _cToken) external view returns (uint) {\r\n    // scaled up by 1e18\r\n    return priceFeed.getUnderlyingPrice(_cToken);\r\n  }\r\n\r\n  function enterMarket() external {\r\n    address[] memory cTokens = new address[](1);\r\n    cTokens[0] = address(cTokenSupply);\r\n    uint[] memory errors = comptroller.enterMarkets(cTokens);\r\n    require(errors[0] == 0, \"Comptroller.enterMarkets failed.\");\r\n  }\r\n\r\n  function borrow(uint _amount) external {\r\n    require(cTokenBorrow.borrow(_amount) == 0, \"borrow failed\");\r\n  }\r\n\r\n  // not view function\r\n  function getBorrowBalance() public returns (uint) {\r\n    return cTokenBorrow.borrowBalanceCurrent(address(this));\r\n  }\r\n}\r\n\r\ncontract CompoundLiquidator {\r\n  Comptroller public comptroller = Comptroller(0x3d9819210A31b4961b30EF54bE2aeD79B9c9Cd3B);\r\n  \r\n  IERC20 public tokenBorrow;\r\n  CErc20 public cTokenBorrow;\r\n  \r\n  constructor(address _tokenBorrow, address _cTokenBorrow) {\r\n    tokenBorrow = IERC20(_tokenBorrow);\r\n    cTokenBorrow = CErc20(_cTokenBorrow);\r\n  }\r\n\r\n  /**\r\n   * @dev close factor is the maximum percentage of the borrowed token that can be repaid\r\n   * @return value comes from calling the closeFactorMantissa() function using the comptroller state variable\r\n   */\r\n  function getCloseFactor() external view returns (uint) {\r\n    return comptroller.closeFactorMantissa();\r\n  }\r\n\r\n  /**\r\n   * @dev Liquidation incentive is the amount of collateral that is given to the liquidator\r\n   * @return an uint that represents the amount of collateral that is given to the liquidator\r\n   */\r\n  function getLiquidationIncentive() external view returns (uint) {\r\n    return comptroller.liquidationIncentiveMantissa();\r\n  }\r\n\r\n  /**\r\n   * @dev get the exact number of collateral that will be liquidated\r\n   * @param _cTokenBorrowed -> The address of the cToken contract that was borrowed\r\n   * @param _cTokenCollateral -> The address of the cToken contract of the collateral that will be given to the liquidator for liquidating the borrow\r\n   * @param _actualRepayAmount -> The amount that will be paid to liquidate the borrow\r\n   */\r\n  function getAmountToBeLiquidated(\r\n    address _cTokenBorrowed,\r\n    address _cTokenCollateral,\r\n    uint _actualRepayAmount\r\n  ) external view returns (uint) {\r\n    /*\r\n     * Get the exchange rate and calculate the number of collateral tokens to seize:\r\n     *  seizeAmount = actualRepayAmount * liquidationIncentive * priceBorrowed / priceCollateral\r\n     *  seizeTokens = seizeAmount / exchangeRate\r\n     *   = actualRepayAmount * (liquidationIncentive * priceBorrowed) / (priceCollateral * exchangeRate)\r\n     */\r\n    (uint result, uint cTokenCollateralAmount) = comptroller.liquidateCalculateSeizeTokens(_cTokenBorrowed,_cTokenCollateral,_actualRepayAmount);\r\n    require(result == 0, \"Error while calling the liquidateCalculateSeizeTokens() function\");\r\n    return cTokenCollateralAmount;\r\n  }\r\n\r\n  /**\r\n   * @dev Liquidate a borrow that is undercollateralized\r\n   * @param _borrower -> The address of the borrower that is holding an undercollateralized borrow\r\n   * @param _repayAmount -> The amount that will be paid to liquidate the borrow\r\n   * @param _cTokenCollateral -> The address of the collateral cToken that will be given to the liquidator in exchange for liquidating the borrow\r\n   */\r\n  function liquidate(address _borrower, uint _repayAmount, address _cTokenCollateral) external {\r\n    tokenBorrow.transferFrom(msg.sender,address(this), _repayAmount);\r\n    tokenBorrow.approve(address(cTokenBorrow), _repayAmount);\r\n    require(cTokenBorrow.liquidateBorrow(_borrower, _repayAmount, _cTokenCollateral) == 0, \"Error while liquidating the borrow\");\r\n  }\r\n\r\n  // get amount liquidated\r\n  // not view function\r\n  function getSupplyBalance(address _cTokenCollateral) external returns (uint) {\r\n    return CErc20(_cTokenCollateral).balanceOfUnderlying(address(this));\r\n  }\r\n\r\n}",
  "sourcePath": "/mnt/c/pr0/blockchain-projects/mainnet-fork/Compound/contracts/CompoundLiquidate.sol",
  "compiler": {
    "name": "solc",
    "version": "0.8.11+commit.d7f03943.Emscripten.clang"
  },
  "schemaVersion": "3.4.4",
  "updatedAt": "2022-10-16T04:40:43.831Z",
  "devdoc": {
    "kind": "dev",
    "methods": {
      "getAmountToBeLiquidated(address,address,uint256)": {
        "details": "get the exact number of collateral that will be liquidated",
        "params": {
          "_actualRepayAmount": "-> The amount that will be paid to liquidate the borrow",
          "_cTokenBorrowed": "-> The address of the cToken contract that was borrowed",
          "_cTokenCollateral": "-> The address of the cToken contract of the collateral that will be given to the liquidator for liquidating the borrow"
        }
      },
      "getCloseFactor()": {
        "details": "close factor is the maximum percentage of the borrowed token that can be repaid",
        "returns": {
          "_0": "value comes from calling the closeFactorMantissa() function using the comptroller state variable"
        }
      },
      "getLiquidationIncentive()": {
        "details": "Liquidation incentive is the amount of collateral that is given to the liquidator",
        "returns": {
          "_0": "an uint that represents the amount of collateral that is given to the liquidator"
        }
      },
      "liquidate(address,uint256,address)": {
        "details": "Liquidate a borrow that is undercollateralized",
        "params": {
          "_borrower": "-> The address of the borrower that is holding an undercollateralized borrow",
          "_cTokenCollateral": "-> The address of the collateral cToken that will be given to the liquidator in exchange for liquidating the borrow",
          "_repayAmount": "-> The amount that will be paid to liquidate the borrow"
        }
      }
    },
    "version": 1
  },
  "userdoc": {
    "kind": "user",
    "methods": {},
    "version": 1
  }
}