{
  "contractName": "CompoundLong",
  "abi": [
    {
      "inputs": [
        {
          "internalType": "address",
          "name": "_cEth",
          "type": "address"
        },
        {
          "internalType": "address",
          "name": "_cTokenBorrow",
          "type": "address"
        },
        {
          "internalType": "address",
          "name": "_tokenBorrow",
          "type": "address"
        },
        {
          "internalType": "uint256",
          "name": "_decimals",
          "type": "uint256"
        }
      ],
      "stateMutability": "nonpayable",
      "type": "constructor"
    },
    {
      "inputs": [],
      "name": "cEth",
      "outputs": [
        {
          "internalType": "contract CEth",
          "name": "",
          "type": "address"
        }
      ],
      "stateMutability": "view",
      "type": "function"
    },
    {
      "inputs": [],
      "name": "cTokenBorrow",
      "outputs": [
        {
          "internalType": "contract CErc20",
          "name": "",
          "type": "address"
        }
      ],
      "stateMutability": "view",
      "type": "function"
    },
    {
      "inputs": [],
      "name": "comptroller",
      "outputs": [
        {
          "internalType": "contract Comptroller",
          "name": "",
          "type": "address"
        }
      ],
      "stateMutability": "view",
      "type": "function"
    },
    {
      "inputs": [],
      "name": "decimals",
      "outputs": [
        {
          "internalType": "uint256",
          "name": "",
          "type": "uint256"
        }
      ],
      "stateMutability": "view",
      "type": "function"
    },
    {
      "inputs": [],
      "name": "priceFeed",
      "outputs": [
        {
          "internalType": "contract PriceFeed",
          "name": "",
          "type": "address"
        }
      ],
      "stateMutability": "view",
      "type": "function"
    },
    {
      "inputs": [],
      "name": "tokenBorrow",
      "outputs": [
        {
          "internalType": "contract IERC20",
          "name": "",
          "type": "address"
        }
      ],
      "stateMutability": "view",
      "type": "function"
    },
    {
      "stateMutability": "payable",
      "type": "receive"
    },
    {
      "inputs": [],
      "name": "supply",
      "outputs": [],
      "stateMutability": "payable",
      "type": "function"
    },
    {
      "inputs": [],
      "name": "getMaxBorrow",
      "outputs": [
        {
          "internalType": "uint256",
          "name": "",
          "type": "uint256"
        }
      ],
      "stateMutability": "view",
      "type": "function"
    },
    {
      "inputs": [
        {
          "internalType": "uint256",
          "name": "_borrowAmount",
          "type": "uint256"
        }
      ],
      "name": "long",
      "outputs": [],
      "stateMutability": "nonpayable",
      "type": "function"
    },
    {
      "inputs": [],
      "name": "repay",
      "outputs": [],
      "stateMutability": "nonpayable",
      "type": "function"
    },
    {
      "inputs": [],
      "name": "getSuppliedBalance",
      "outputs": [
        {
          "internalType": "uint256",
          "name": "",
          "type": "uint256"
        }
      ],
      "stateMutability": "nonpayable",
      "type": "function"
    },
    {
      "inputs": [],
      "name": "getBorrowBalance",
      "outputs": [
        {
          "internalType": "uint256",
          "name": "",
          "type": "uint256"
        }
      ],
      "stateMutability": "nonpayable",
      "type": "function"
    },
    {
      "inputs": [],
      "name": "getAccountLiquidity",
      "outputs": [
        {
          "internalType": "uint256",
          "name": "liquidity",
          "type": "uint256"
        },
        {
          "internalType": "uint256",
          "name": "shortfall",
          "type": "uint256"
        }
      ],
      "stateMutability": "view",
      "type": "function"
    }
  ],
  "bytecode": "0x6080604052733d9819210a31b4961b30ef54be2aed79b9c9cd3b600460006101000a81548173ffffffffffffffffffffffffffffffffffffffff021916908373ffffffffffffffffffffffffffffffffffffffff16021790555073922018674c12a7f0d394ebeef9b58f186cde13c1600560006101000a81548173ffffffffffffffffffffffffffffffffffffffff021916908373ffffffffffffffffffffffffffffffffffffffff160217905550348015620000bb57600080fd5b50604051620026c2380380620026c28339818101604052810190620000e191906200043e565b836000806101000a81548173ffffffffffffffffffffffffffffffffffffffff021916908373ffffffffffffffffffffffffffffffffffffffff16021790555082600160006101000a81548173ffffffffffffffffffffffffffffffffffffffff021916908373ffffffffffffffffffffffffffffffffffffffff16021790555081600260006101000a81548173ffffffffffffffffffffffffffffffffffffffff021916908373ffffffffffffffffffffffffffffffffffffffff160217905550806003819055506000600167ffffffffffffffff811115620001ca57620001c9620004b0565b5b604051908082528060200260200182016040528015620001f95781602001602082028036833780820191505090505b50905060008054906101000a900473ffffffffffffffffffffffffffffffffffffffff1681600081518110620002345762000233620004df565b5b602002602001019073ffffffffffffffffffffffffffffffffffffffff16908173ffffffffffffffffffffffffffffffffffffffff16815250506000600460009054906101000a900473ffffffffffffffffffffffffffffffffffffffff1673ffffffffffffffffffffffffffffffffffffffff1663c2998238836040518263ffffffff1660e01b8152600401620002cd9190620005dc565b6000604051808303816000875af1158015620002ed573d6000803e3d6000fd5b505050506040513d6000823e3d601f19601f8201168201806040525081019062000318919062000746565b9050600081600081518110620003335762000332620004df565b5b6020026020010151146200037e576040517f08c379a00000000000000000000000000000000000000000000000000000000081526004016200037590620007f8565b60405180910390fd5b5050505050506200081a565b6000604051905090565b600080fd5b600080fd5b600073ffffffffffffffffffffffffffffffffffffffff82169050919050565b6000620003cb826200039e565b9050919050565b620003dd81620003be565b8114620003e957600080fd5b50565b600081519050620003fd81620003d2565b92915050565b6000819050919050565b620004188162000403565b81146200042457600080fd5b50565b60008151905062000438816200040d565b92915050565b600080600080608085870312156200045b576200045a62000394565b5b60006200046b87828801620003ec565b94505060206200047e87828801620003ec565b93505060406200049187828801620003ec565b9250506060620004a48782880162000427565b91505092959194509250565b7f4e487b7100000000000000000000000000000000000000000000000000000000600052604160045260246000fd5b7f4e487b7100000000000000000000000000000000000000000000000000000000600052603260045260246000fd5b600081519050919050565b600082825260208201905092915050565b6000819050602082019050919050565b6200054581620003be565b82525050565b60006200055983836200053a565b60208301905092915050565b6000602082019050919050565b60006200057f826200050e565b6200058b818562000519565b935062000598836200052a565b8060005b83811015620005cf578151620005b388826200054b565b9750620005c08362000565565b9250506001810190506200059c565b5085935050505092915050565b60006020820190508181036000830152620005f8818462000572565b905092915050565b600080fd5b6000601f19601f8301169050919050565b620006218262000605565b810181811067ffffffffffffffff82111715620006435762000642620004b0565b5b80604052505050565b6000620006586200038a565b905062000666828262000616565b919050565b600067ffffffffffffffff821115620006895762000688620004b0565b5b602082029050602081019050919050565b600080fd5b6000620006b6620006b0846200066b565b6200064c565b90508083825260208201905060208402830185811115620006dc57620006db6200069a565b5b835b81811015620007095780620006f4888262000427565b845260208401935050602081019050620006de565b5050509392505050565b600082601f8301126200072b576200072a62000600565b5b81516200073d8482602086016200069f565b91505092915050565b6000602082840312156200075f576200075e62000394565b5b600082015167ffffffffffffffff81111562000780576200077f62000399565b5b6200078e8482850162000713565b91505092915050565b600082825260208201905092915050565b7f436f6d7074726f6c6c65722e656e7465724d61726b657473206661696c65642e600082015250565b6000620007e060208362000797565b9150620007ed82620007a8565b602082019050919050565b600060208201905081810360008301526200081381620007d1565b9050919050565b611e98806200082a6000396000f3fe6080604052600436106100c65760003560e01c80635fe3b5671161007f578063a44026a311610059578063a44026a31461021f578063af833d421461024a578063ca20659114610275578063fd6bac70146102a0576100cd565b80635fe3b567146101a0578063741bef1a146101cb5780639db4bcd6146101f6576100cd565b8063047fc9aa146100d257806324d6db47146100dc5780632fd4cda714610107578063313ce56714610133578063402d88831461015e5780634252b45214610175576100cd565b366100cd57005b600080fd5b6100da6102cb565b005b3480156100e857600080fd5b506100f161034e565b6040516100fe91906112be565b60405180910390f35b34801561011357600080fd5b5061011c610374565b60405161012a9291906112f2565b60405180910390f35b34801561013f57600080fd5b5061014861046e565b604051610155919061131b565b60405180910390f35b34801561016a57600080fd5b50610173610474565b005b34801561018157600080fd5b5061018a6109fe565b604051610197919061131b565b60405180910390f35b3480156101ac57600080fd5b506101b5610aa2565b6040516101c29190611357565b60405180910390f35b3480156101d757600080fd5b506101e0610ac8565b6040516101ed9190611393565b60405180910390f35b34801561020257600080fd5b5061021d600480360381019061021891906113ee565b610aee565b005b34801561022b57600080fd5b50610234610ee9565b604051610241919061143c565b60405180910390f35b34801561025657600080fd5b5061025f610f0d565b60405161026c919061131b565b60405180910390f35b34801561028157600080fd5b5061028a611174565b604051610297919061131b565b60405180910390f35b3480156102ac57600080fd5b506102b5611219565b6040516102c29190611478565b60405180910390f35b60008054906101000a900473ffffffffffffffffffffffffffffffffffffffff1673ffffffffffffffffffffffffffffffffffffffff16631249c58b346040518263ffffffff1660e01b81526004016000604051808303818588803b15801561033357600080fd5b505af1158015610347573d6000803e3d6000fd5b5050505050565b600260009054906101000a900473ffffffffffffffffffffffffffffffffffffffff1681565b6000806000806000600460009054906101000a900473ffffffffffffffffffffffffffffffffffffffff1673ffffffffffffffffffffffffffffffffffffffff16635ec88c79306040518263ffffffff1660e01b81526004016103d791906114b4565b606060405180830381865afa1580156103f4573d6000803e3d6000fd5b505050506040513d601f19601f8201168201806040525081019061041891906114e4565b92509250925060008314610461576040517f08c379a000000000000000000000000000000000000000000000000000000000815260040161045890611594565b60405180910390fd5b8181945094505050509091565b60035481565b6000600267ffffffffffffffff811115610491576104906115b4565b5b6040519080825280602002602001820160405280156104bf5781602001602082028036833780820191505090505b50905073c02aaa39b223fe8d0a0e5c4f27ead9083c756cc2816000815181106104eb576104ea6115e3565b5b602002602001019073ffffffffffffffffffffffffffffffffffffffff16908173ffffffffffffffffffffffffffffffffffffffff1681525050600260009054906101000a900473ffffffffffffffffffffffffffffffffffffffff168160018151811061055c5761055b6115e3565b5b602002602001019073ffffffffffffffffffffffffffffffffffffffff16908173ffffffffffffffffffffffffffffffffffffffff1681525050737a250d5630b4cf539739df2c5dacb4c659f2488d73ffffffffffffffffffffffffffffffffffffffff16637ff36ab54760018430426040518663ffffffff1660e01b81526004016105eb949392919061170b565b60006040518083038185885af1158015610609573d6000803e3d6000fd5b50505050506040513d6000823e3d601f19601f820116820180604052508101906106339190611881565b506000600160009054906101000a900473ffffffffffffffffffffffffffffffffffffffff1673ffffffffffffffffffffffffffffffffffffffff166317bfdfbc306040518263ffffffff1660e01b815260040161069191906114b4565b6020604051808303816000875af11580156106b0573d6000803e3d6000fd5b505050506040513d601f19601f820116820180604052508101906106d491906118ca565b9050600260009054906101000a900473ffffffffffffffffffffffffffffffffffffffff1673ffffffffffffffffffffffffffffffffffffffff1663095ea7b3600160009054906101000a900473ffffffffffffffffffffffffffffffffffffffff16836040518363ffffffff1660e01b81526004016107559291906118f7565b6020604051808303816000875af1158015610774573d6000803e3d6000fd5b505050506040513d601f19601f820116820180604052508101906107989190611958565b506000600160009054906101000a900473ffffffffffffffffffffffffffffffffffffffff1673ffffffffffffffffffffffffffffffffffffffff16630e752702836040518263ffffffff1660e01b81526004016107f6919061131b565b6020604051808303816000875af1158015610815573d6000803e3d6000fd5b505050506040513d601f19601f8201168201806040525081019061083991906118ca565b14610879576040517f08c379a0000000000000000000000000000000000000000000000000000000008152600401610870906119d1565b60405180910390fd5b60008060009054906101000a900473ffffffffffffffffffffffffffffffffffffffff1673ffffffffffffffffffffffffffffffffffffffff16633af9e669306040518263ffffffff1660e01b81526004016108d591906114b4565b6020604051808303816000875af11580156108f4573d6000803e3d6000fd5b505050506040513d601f19601f8201168201806040525081019061091891906118ca565b905060008060009054906101000a900473ffffffffffffffffffffffffffffffffffffffff1673ffffffffffffffffffffffffffffffffffffffff1663852a12e3836040518263ffffffff1660e01b8152600401610976919061131b565b6020604051808303816000875af1158015610995573d6000803e3d6000fd5b505050506040513d601f19601f820116820180604052508101906109b991906118ca565b146109f9576040517f08c379a00000000000000000000000000000000000000000000000000000000081526004016109f090611a3d565b60405180910390fd5b505050565b60008060009054906101000a900473ffffffffffffffffffffffffffffffffffffffff1673ffffffffffffffffffffffffffffffffffffffff16633af9e669306040518263ffffffff1660e01b8152600401610a5a91906114b4565b6020604051808303816000875af1158015610a79573d6000803e3d6000fd5b505050506040513d601f19601f82011682018060405250810190610a9d91906118ca565b905090565b600460009054906101000a900473ffffffffffffffffffffffffffffffffffffffff1681565b600560009054906101000a900473ffffffffffffffffffffffffffffffffffffffff1681565b6000600160009054906101000a900473ffffffffffffffffffffffffffffffffffffffff1673ffffffffffffffffffffffffffffffffffffffff1663c5ebeaec836040518263ffffffff1660e01b8152600401610b4b919061131b565b6020604051808303816000875af1158015610b6a573d6000803e3d6000fd5b505050506040513d601f19601f82011682018060405250810190610b8e91906118ca565b14610bce576040517f08c379a0000000000000000000000000000000000000000000000000000000008152600401610bc590611aa9565b60405180910390fd5b6000600260009054906101000a900473ffffffffffffffffffffffffffffffffffffffff1673ffffffffffffffffffffffffffffffffffffffff166370a08231306040518263ffffffff1660e01b8152600401610c2b91906114b4565b602060405180830381865afa158015610c48573d6000803e3d6000fd5b505050506040513d601f19601f82011682018060405250810190610c6c91906118ca565b9050600260009054906101000a900473ffffffffffffffffffffffffffffffffffffffff1673ffffffffffffffffffffffffffffffffffffffff1663095ea7b3737a250d5630b4cf539739df2c5dacb4c659f2488d836040518363ffffffff1660e01b8152600401610cdf9291906118f7565b6020604051808303816000875af1158015610cfe573d6000803e3d6000fd5b505050506040513d601f19601f82011682018060405250810190610d229190611958565b506000600267ffffffffffffffff811115610d4057610d3f6115b4565b5b604051908082528060200260200182016040528015610d6e5781602001602082028036833780820191505090505b509050600260009054906101000a900473ffffffffffffffffffffffffffffffffffffffff1681600081518110610da857610da76115e3565b5b602002602001019073ffffffffffffffffffffffffffffffffffffffff16908173ffffffffffffffffffffffffffffffffffffffff168152505073c02aaa39b223fe8d0a0e5c4f27ead9083c756cc281600181518110610e0b57610e0a6115e3565b5b602002602001019073ffffffffffffffffffffffffffffffffffffffff16908173ffffffffffffffffffffffffffffffffffffffff1681525050737a250d5630b4cf539739df2c5dacb4c659f2488d73ffffffffffffffffffffffffffffffffffffffff166318cbafe58360018430426040518663ffffffff1660e01b8152600401610e9b959493929190611ac9565b6000604051808303816000875af1158015610eba573d6000803e3d6000fd5b505050506040513d6000823e3d601f19601f82011682018060405250810190610ee39190611881565b50505050565b60008054906101000a900473ffffffffffffffffffffffffffffffffffffffff1681565b600080600080600460009054906101000a900473ffffffffffffffffffffffffffffffffffffffff1673ffffffffffffffffffffffffffffffffffffffff16635ec88c79306040518263ffffffff1660e01b8152600401610f6e91906114b4565b606060405180830381865afa158015610f8b573d6000803e3d6000fd5b505050506040513d601f19601f82011682018060405250810190610faf91906114e4565b92509250925060008314610ff8576040517f08c379a0000000000000000000000000000000000000000000000000000000008152600401610fef90611594565b60405180910390fd5b6000811461103b576040517f08c379a000000000000000000000000000000000000000000000000000000000815260040161103290611b6f565b60405180910390fd5b6000821161107e576040517f08c379a000000000000000000000000000000000000000000000000000000000815260040161107590611bdb565b60405180910390fd5b6000600560009054906101000a900473ffffffffffffffffffffffffffffffffffffffff1673ffffffffffffffffffffffffffffffffffffffff1663fc57d4df600160009054906101000a900473ffffffffffffffffffffffffffffffffffffffff166040518263ffffffff1660e01b81526004016110fd91906114b4565b602060405180830381865afa15801561111a573d6000803e3d6000fd5b505050506040513d601f19601f8201168201806040525081019061113e91906118ca565b9050600081600354600a6111529190611d5d565b8561115d9190611da8565b6111679190611e31565b9050809550505050505090565b6000600160009054906101000a900473ffffffffffffffffffffffffffffffffffffffff1673ffffffffffffffffffffffffffffffffffffffff166317bfdfbc306040518263ffffffff1660e01b81526004016111d191906114b4565b6020604051808303816000875af11580156111f0573d6000803e3d6000fd5b505050506040513d601f19601f8201168201806040525081019061121491906118ca565b905090565b600160009054906101000a900473ffffffffffffffffffffffffffffffffffffffff1681565b600073ffffffffffffffffffffffffffffffffffffffff82169050919050565b6000819050919050565b600061128461127f61127a8461123f565b61125f565b61123f565b9050919050565b600061129682611269565b9050919050565b60006112a88261128b565b9050919050565b6112b88161129d565b82525050565b60006020820190506112d360008301846112af565b92915050565b6000819050919050565b6112ec816112d9565b82525050565b600060408201905061130760008301856112e3565b61131460208301846112e3565b9392505050565b600060208201905061133060008301846112e3565b92915050565b60006113418261128b565b9050919050565b61135181611336565b82525050565b600060208201905061136c6000830184611348565b92915050565b600061137d8261128b565b9050919050565b61138d81611372565b82525050565b60006020820190506113a86000830184611384565b92915050565b6000604051905090565b600080fd5b600080fd5b6113cb816112d9565b81146113d657600080fd5b50565b6000813590506113e8816113c2565b92915050565b600060208284031215611404576114036113b8565b5b6000611412848285016113d9565b91505092915050565b60006114268261128b565b9050919050565b6114368161141b565b82525050565b6000602082019050611451600083018461142d565b92915050565b60006114628261128b565b9050919050565b61147281611457565b82525050565b600060208201905061148d6000830184611469565b92915050565b600061149e8261123f565b9050919050565b6114ae81611493565b82525050565b60006020820190506114c960008301846114a5565b92915050565b6000815190506114de816113c2565b92915050565b6000806000606084860312156114fd576114fc6113b8565b5b600061150b868287016114cf565b935050602061151c868287016114cf565b925050604061152d868287016114cf565b9150509250925092565b600082825260208201905092915050565b7f6572726f72000000000000000000000000000000000000000000000000000000600082015250565b600061157e600583611537565b915061158982611548565b602082019050919050565b600060208201905081810360008301526115ad81611571565b9050919050565b7f4e487b7100000000000000000000000000000000000000000000000000000000600052604160045260246000fd5b7f4e487b7100000000000000000000000000000000000000000000000000000000600052603260045260246000fd5b6000819050919050565b600061163761163261162d84611612565b61125f565b6112d9565b9050919050565b6116478161161c565b82525050565b600081519050919050565b600082825260208201905092915050565b6000819050602082019050919050565b61168281611493565b82525050565b60006116948383611679565b60208301905092915050565b6000602082019050919050565b60006116b88261164d565b6116c28185611658565b93506116cd83611669565b8060005b838110156116fe5781516116e58882611688565b97506116f0836116a0565b9250506001810190506116d1565b5085935050505092915050565b6000608082019050611720600083018761163e565b818103602083015261173281866116ad565b905061174160408301856114a5565b61174e60608301846112e3565b95945050505050565b600080fd5b6000601f19601f8301169050919050565b6117768261175c565b810181811067ffffffffffffffff82111715611795576117946115b4565b5b80604052505050565b60006117a86113ae565b90506117b4828261176d565b919050565b600067ffffffffffffffff8211156117d4576117d36115b4565b5b602082029050602081019050919050565b600080fd5b60006117fd6117f8846117b9565b61179e565b905080838252602082019050602084028301858111156118205761181f6117e5565b5b835b81811015611849578061183588826114cf565b845260208401935050602081019050611822565b5050509392505050565b600082601f83011261186857611867611757565b5b81516118788482602086016117ea565b91505092915050565b600060208284031215611897576118966113b8565b5b600082015167ffffffffffffffff8111156118b5576118b46113bd565b5b6118c184828501611853565b91505092915050565b6000602082840312156118e0576118df6113b8565b5b60006118ee848285016114cf565b91505092915050565b600060408201905061190c60008301856114a5565b61191960208301846112e3565b9392505050565b60008115159050919050565b61193581611920565b811461194057600080fd5b50565b6000815190506119528161192c565b92915050565b60006020828403121561196e5761196d6113b8565b5b600061197c84828501611943565b91505092915050565b7f7265706179206661696c65640000000000000000000000000000000000000000600082015250565b60006119bb600c83611537565b91506119c682611985565b602082019050919050565b600060208201905081810360008301526119ea816119ae565b9050919050565b7f72656465656d206661696c656400000000000000000000000000000000000000600082015250565b6000611a27600d83611537565b9150611a32826119f1565b602082019050919050565b60006020820190508181036000830152611a5681611a1a565b9050919050565b7f626f72726f77206661696c656400000000000000000000000000000000000000600082015250565b6000611a93600d83611537565b9150611a9e82611a5d565b602082019050919050565b60006020820190508181036000830152611ac281611a86565b9050919050565b600060a082019050611ade60008301886112e3565b611aeb602083018761163e565b8181036040830152611afd81866116ad565b9050611b0c60608301856114a5565b611b1960808301846112e3565b9695505050505050565b7f73686f727466616c6c203e203000000000000000000000000000000000000000600082015250565b6000611b59600d83611537565b9150611b6482611b23565b602082019050919050565b60006020820190508181036000830152611b8881611b4c565b9050919050565b7f6c6971756964697479203d203000000000000000000000000000000000000000600082015250565b6000611bc5600d83611537565b9150611bd082611b8f565b602082019050919050565b60006020820190508181036000830152611bf481611bb8565b9050919050565b7f4e487b7100000000000000000000000000000000000000000000000000000000600052601160045260246000fd5b60008160011c9050919050565b6000808291508390505b6001851115611c8157808604811115611c5d57611c5c611bfb565b5b6001851615611c6c5780820291505b8081029050611c7a85611c2a565b9450611c41565b94509492505050565b600082611c9a5760019050611d56565b81611ca85760009050611d56565b8160018114611cbe5760028114611cc857611cf7565b6001915050611d56565b60ff841115611cda57611cd9611bfb565b5b8360020a915084821115611cf157611cf0611bfb565b5b50611d56565b5060208310610133831016604e8410600b8410161715611d2c5782820a905083811115611d2757611d26611bfb565b5b611d56565b611d398484846001611c37565b92509050818404811115611d5057611d4f611bfb565b5b81810290505b9392505050565b6000611d68826112d9565b9150611d73836112d9565b9250611da07fffffffffffffffffffffffffffffffffffffffffffffffffffffffffffffffff8484611c8a565b905092915050565b6000611db3826112d9565b9150611dbe836112d9565b9250817fffffffffffffffffffffffffffffffffffffffffffffffffffffffffffffffff0483118215151615611df757611df6611bfb565b5b828202905092915050565b7f4e487b7100000000000000000000000000000000000000000000000000000000600052601260045260246000fd5b6000611e3c826112d9565b9150611e47836112d9565b925082611e5757611e56611e02565b5b82820490509291505056fea26469706673582212200b1cdeef1f043a4dcacb94fe6a5c7c1fbfa0912dd2eb35342b248e7f5d17d2b664736f6c634300080b0033",
  "immutableReferences": {},
  "source": "// SPDX-License-Identifier: MIT\r\npragma solidity ^0.8;\r\n\r\n/* Long ETH\r\n1. supply ETH\r\n2. borrow stable coin (DAI, USDC)\r\n3. buy ETH on Uniswap\r\nwhen the price of ETH goes up...\r\n4. sell ETH on Uniswap\r\n5. repay borrowed stable coin\r\n*/\r\n\r\nimport \"@openzeppelin/contracts/token/ERC20/IERC20.sol\";\r\nimport \"./interfaces/compound.sol\";\r\nimport \"./interfaces/Uniswap.sol\";\r\n\r\ncontract CompoundLong {\r\n  CEth public cEth;\r\n  CErc20 public cTokenBorrow;\r\n  IERC20 public tokenBorrow;\r\n  uint public decimals;\r\n\r\n  Comptroller public comptroller =\r\n    Comptroller(0x3d9819210A31b4961b30EF54bE2aeD79B9c9Cd3B);\r\n\r\n  PriceFeed public priceFeed = PriceFeed(0x922018674c12a7F0D394ebEEf9B58F186CdE13c1);\r\n\r\n  IUniswapV2Router private constant UNI =\r\n    IUniswapV2Router(0x7a250d5630B4cF539739dF2C5dAcb4c659F2488D);\r\n  IERC20 private constant WETH = IERC20(0xC02aaA39b223FE8D0A0e5C4F27eAD9083C756Cc2);\r\n\r\n  /**\r\n   * @dev Right after initializing the state variables the constructor will enter the market in the compound protocol the cETH token\r\n   */\r\n  constructor(\r\n    address _cEth,\r\n    address _cTokenBorrow,\r\n    address _tokenBorrow,\r\n    uint _decimals\r\n  ) {\r\n    cEth = CEth(_cEth);\r\n    cTokenBorrow = CErc20(_cTokenBorrow);\r\n    tokenBorrow = IERC20(_tokenBorrow);\r\n    decimals = _decimals;\r\n\r\n    // enter market to enable borrow using CETH Tokens\r\n    address[] memory cTokens = new address[](1);\r\n    cTokens[0] = address(cEth);\r\n    uint[] memory errors = comptroller.enterMarkets(cTokens);\r\n    require(errors[0] == 0, \"Comptroller.enterMarkets failed.\");\r\n  }\r\n\r\n  /**\r\n   * @dev receive() function is called when sending ethers to the contract and msg.data is empty\r\n   * when msg.value > 0 && msg.data == empty!\r\n   */\r\n  receive() external payable {}\r\n\r\n  /**\r\n   * @dev supply() function mints new cETH tokens into this exchange, it sends the Ethers that are passed when calling this function into the cEth contract!\r\n   */\r\n  function supply() external payable {\r\n    cEth.mint{value: msg.value}();\r\n  }\r\n\r\n  /**\r\n   * @dev Determine the maximum amount in usd value that this contract is allowed to borrow from the compound protocol\r\n   */\r\n  function getMaxBorrow() external view returns (uint) {\r\n    (uint error, uint liquidity, uint shortfall) = comptroller.getAccountLiquidity(\r\n      address(this)\r\n    );\r\n\r\n    require(error == 0, \"error\");\r\n    require(shortfall == 0, \"shortfall > 0\");\r\n    require(liquidity > 0, \"liquidity = 0\");\r\n\r\n    uint price = priceFeed.getUnderlyingPrice(address(cTokenBorrow));\r\n    uint maxBorrow = (liquidity * (10**decimals)) / price;\r\n\r\n    return maxBorrow;\r\n  }\r\n\r\n  /**\r\n   * @dev long() functions asks the borrow from the compound protocol and then uses Uniswap to buy the ETHs that will be used as the long position!\r\n   */\r\n  function long(uint _borrowAmount) external {\r\n    // borrow from the compound protocol\r\n    require(cTokenBorrow.borrow(_borrowAmount) == 0, \"borrow failed\");\r\n\r\n    // buy ETH using Uniswap\r\n    uint bal = tokenBorrow.balanceOf(address(this));\r\n    tokenBorrow.approve(address(UNI), bal);\r\n\r\n    address[] memory path = new address[](2);\r\n    path[0] = address(tokenBorrow);\r\n    path[1] = address(WETH);\r\n    UNI.swapExactTokensForETH(bal, 1, path, address(this), block.timestamp);\r\n  }\r\n\r\n  /**\r\n   * @dev repay() function sells the ETH that were bought at the beginning of the long position and then repays the borrow that was made in the compound protocol\r\n   * The user is left with: original supplied ETH + supplied interest + profit (in token borrow) \r\n   */\r\n  function repay() external {\r\n    // sell ETH using Uniswap\r\n    address[] memory path = new address[](2);\r\n    path[0] = address(WETH);\r\n    path[1] = address(tokenBorrow);\r\n    UNI.swapExactETHForTokens{value: address(this).balance}(\r\n      1,\r\n      path,\r\n      address(this),\r\n      block.timestamp\r\n    );\r\n    // repay borrow in the Compound Protocol\r\n    uint borrowed = cTokenBorrow.borrowBalanceCurrent(address(this));\r\n    tokenBorrow.approve(address(cTokenBorrow), borrowed);\r\n    require(cTokenBorrow.repayBorrow(borrowed) == 0, \"repay failed\");\r\n\r\n    uint supplied = cEth.balanceOfUnderlying(address(this));\r\n    require(cEth.redeemUnderlying(supplied) == 0, \"redeem failed\");\r\n\r\n    // The user is left with: original supplied ETH + supplied interest + profit (in token borrow)\r\n  }\r\n\r\n  // not view function - getSuppliedBalance() returns the total amount of value a lender has in the compound protocol - Original supplied amount + accrued interests\r\n  function getSuppliedBalance() external returns (uint) {\r\n    return cEth.balanceOfUnderlying(address(this));\r\n  }\r\n\r\n  // not view function\r\n  /**\r\n   * @dev getBorrowBalance() returns the total amount of \"debt\" that the borrower has for a borrow - Original borrowed amount + accrued interests\r\n   */\r\n  function getBorrowBalance() external returns (uint) {\r\n    return cTokenBorrow.borrowBalanceCurrent(address(this));\r\n  }\r\n\r\n  function getAccountLiquidity()\r\n    external\r\n    view\r\n    returns (uint liquidity, uint shortfall)\r\n  {\r\n    // liquidity and shortfall in USD scaled up by 1e18\r\n    (uint error, uint _liquidity, uint _shortfall) = comptroller.getAccountLiquidity(\r\n      address(this)\r\n    );\r\n    require(error == 0, \"error\");\r\n    return (_liquidity, _shortfall);\r\n  }\r\n\r\n}",
  "sourcePath": "/mnt/c/pr0/blockchain-projects/mainnet-fork/Compound/contracts/CompoundLong.sol",
  "compiler": {
    "name": "solc",
    "version": "0.8.11+commit.d7f03943.Emscripten.clang"
  },
  "schemaVersion": "3.4.4",
  "updatedAt": "2022-10-17T01:14:44.408Z",
  "devdoc": {
    "kind": "dev",
    "methods": {
      "constructor": {
        "details": "Right after initializing the state variables the constructor will enter the market in the compound protocol the cETH token"
      },
      "getBorrowBalance()": {
        "details": "getBorrowBalance() returns the total amount of \"debt\" that the borrower has for a borrow - Original borrowed amount + accrued interests"
      },
      "getMaxBorrow()": {
        "details": "Determine the maximum amount in usd value that this contract is allowed to borrow from the compound protocol"
      },
      "long(uint256)": {
        "details": "long() functions asks the borrow from the compound protocol and then uses Uniswap to buy the ETHs that will be used as the long position!"
      },
      "repay()": {
        "details": "repay() function sells the ETH that were bought at the beginning of the long position and then repays the borrow that was made in the compound protocol The user is left with: original supplied ETH + supplied interest + profit (in token borrow) "
      },
      "supply()": {
        "details": "supply() function mints new cETH tokens into this exchange, it sends the Ethers that are passed when calling this function into the cEth contract!"
      }
    },
    "version": 1
  },
  "userdoc": {
    "kind": "user",
    "methods": {},
    "version": 1
  }
}