{
  "contractName": "AaveFlashLoan",
  "abi": [
    {
      "inputs": [
        {
          "internalType": "contract ILendingPoolAddressesProvider",
          "name": "_addressProvider",
          "type": "address"
        }
      ],
      "stateMutability": "nonpayable",
      "type": "constructor"
    },
    {
      "anonymous": false,
      "inputs": [
        {
          "indexed": false,
          "internalType": "string",
          "name": "message",
          "type": "string"
        },
        {
          "indexed": false,
          "internalType": "uint256",
          "name": "val",
          "type": "uint256"
        }
      ],
      "name": "Log",
      "type": "event"
    },
    {
      "inputs": [],
      "name": "ADDRESSES_PROVIDER",
      "outputs": [
        {
          "internalType": "contract ILendingPoolAddressesProvider",
          "name": "",
          "type": "address"
        }
      ],
      "stateMutability": "view",
      "type": "function"
    },
    {
      "inputs": [],
      "name": "LENDING_POOL",
      "outputs": [
        {
          "internalType": "contract ILendingPool",
          "name": "",
          "type": "address"
        }
      ],
      "stateMutability": "view",
      "type": "function"
    },
    {
      "inputs": [
        {
          "internalType": "address",
          "name": "asset",
          "type": "address"
        },
        {
          "internalType": "uint256",
          "name": "amount",
          "type": "uint256"
        }
      ],
      "name": "testFlashLoan",
      "outputs": [],
      "stateMutability": "nonpayable",
      "type": "function"
    },
    {
      "inputs": [
        {
          "internalType": "address[]",
          "name": "assets",
          "type": "address[]"
        },
        {
          "internalType": "uint256[]",
          "name": "amounts",
          "type": "uint256[]"
        },
        {
          "internalType": "uint256[]",
          "name": "premiums",
          "type": "uint256[]"
        },
        {
          "internalType": "address",
          "name": "initiator",
          "type": "address"
        },
        {
          "internalType": "bytes",
          "name": "params",
          "type": "bytes"
        }
      ],
      "name": "executeOperation",
      "outputs": [
        {
          "internalType": "bool",
          "name": "",
          "type": "bool"
        }
      ],
      "stateMutability": "nonpayable",
      "type": "function"
    }
  ],
  "bytecode": "0x60c06040523480156200001157600080fd5b506040516200130e3803806200130e833981810160405281019062000037919062000197565b808073ffffffffffffffffffffffffffffffffffffffff1660808173ffffffffffffffffffffffffffffffffffffffff16815250508073ffffffffffffffffffffffffffffffffffffffff16630261bf8b6040518163ffffffff1660e01b8152600401602060405180830381865afa158015620000b8573d6000803e3d6000fd5b505050506040513d601f19601f82011682018060405250810190620000de9190620001fa565b73ffffffffffffffffffffffffffffffffffffffff1660a08173ffffffffffffffffffffffffffffffffffffffff168152505050506200022c565b600080fd5b600073ffffffffffffffffffffffffffffffffffffffff82169050919050565b60006200014b826200011e565b9050919050565b60006200015f826200013e565b9050919050565b620001718162000152565b81146200017d57600080fd5b50565b600081519050620001918162000166565b92915050565b600060208284031215620001b057620001af62000119565b5b6000620001c08482850162000180565b91505092915050565b620001d4816200013e565b8114620001e057600080fd5b50565b600081519050620001f481620001c9565b92915050565b60006020828403121562000213576200021262000119565b5b60006200022384828501620001e3565b91505092915050565b60805160a0516110af6200025f6000396000818161023e015281816102e701526105670152600060db01526110af6000f3fe608060405234801561001057600080fd5b506004361061004c5760003560e01c80630542975c14610051578063920f5c841461006f578063b4dcfc771461009f578063d6b348ee146100bd575b600080fd5b6100596100d9565b604051610066919061069d565b60405180910390f35b61008960048036038101906100849190610811565b6100fd565b6040516100969190610928565b60405180910390f35b6100a76102e5565b6040516100b49190610964565b60405180910390f35b6100d760048036038101906100d291906109b5565b610309565b005b7f000000000000000000000000000000000000000000000000000000000000000081565b600080600090505b8a8a90508110156102d3577fdd970dd9b5bfe707922155b058a407655cb18288b807e2216442bca8ad83d6b5898983818110610144576101436109f5565b5b905060200201356040516101589190610a90565b60405180910390a17fdd970dd9b5bfe707922155b058a407655cb18288b807e2216442bca8ad83d6b5878783818110610194576101936109f5565b5b905060200201356040516101a89190610b0a565b60405180910390a160006101f78888848181106101c8576101c76109f5565b5b905060200201358b8b858181106101e2576101e16109f5565b5b9050602002013561060890919063ffffffff16565b90508b8b8381811061020c5761020b6109f5565b5b90506020020160208101906102219190610b38565b73ffffffffffffffffffffffffffffffffffffffff1663095ea7b37f0000000000000000000000000000000000000000000000000000000000000000836040518363ffffffff1660e01b815260040161027b929190610b74565b6020604051808303816000875af115801561029a573d6000803e3d6000fd5b505050506040513d601f19601f820116820180604052508101906102be9190610bc9565b505080806102cb90610c25565b915050610105565b50600190509998505050505050505050565b7f000000000000000000000000000000000000000000000000000000000000000081565b60008273ffffffffffffffffffffffffffffffffffffffff166370a08231306040518263ffffffff1660e01b81526004016103449190610c6e565b602060405180830381865afa158015610361573d6000803e3d6000fd5b505050506040513d601f19601f820116820180604052508101906103859190610c9e565b90508181116103c9576040517f08c379a00000000000000000000000000000000000000000000000000000000081526004016103c090610d17565b60405180910390fd5b60003090506000600167ffffffffffffffff8111156103eb576103ea610d37565b5b6040519080825280602002602001820160405280156104195781602001602082028036833780820191505090505b5090508481600081518110610431576104306109f5565b5b602002602001019073ffffffffffffffffffffffffffffffffffffffff16908173ffffffffffffffffffffffffffffffffffffffff16815250506000600167ffffffffffffffff81111561048857610487610d37565b5b6040519080825280602002602001820160405280156104b65781602001602082028036833780820191505090505b50905084816000815181106104ce576104cd6109f5565b5b6020026020010181815250506000600167ffffffffffffffff8111156104f7576104f6610d37565b5b6040519080825280602002602001820160405280156105255781602001602082028036833780820191505090505b50905060008160008151811061053e5761053d6109f5565b5b6020026020010181815250506000309050600060405180602001604052806000815250905060007f000000000000000000000000000000000000000000000000000000000000000073ffffffffffffffffffffffffffffffffffffffff1663ab9c4b5d888888888888886040518863ffffffff1660e01b81526004016105ca9796959493929190610f98565b600060405180830381600087803b1580156105e457600080fd5b505af11580156105f8573d6000803e3d6000fd5b5050505050505050505050505050565b600081836106169190611023565b905092915050565b600073ffffffffffffffffffffffffffffffffffffffff82169050919050565b6000819050919050565b600061066361065e6106598461061e565b61063e565b61061e565b9050919050565b600061067582610648565b9050919050565b60006106878261066a565b9050919050565b6106978161067c565b82525050565b60006020820190506106b2600083018461068e565b92915050565b600080fd5b600080fd5b600080fd5b600080fd5b600080fd5b60008083601f8401126106e7576106e66106c2565b5b8235905067ffffffffffffffff811115610704576107036106c7565b5b6020830191508360208202830111156107205761071f6106cc565b5b9250929050565b60008083601f84011261073d5761073c6106c2565b5b8235905067ffffffffffffffff81111561075a576107596106c7565b5b602083019150836020820283011115610776576107756106cc565b5b9250929050565b60006107888261061e565b9050919050565b6107988161077d565b81146107a357600080fd5b50565b6000813590506107b58161078f565b92915050565b60008083601f8401126107d1576107d06106c2565b5b8235905067ffffffffffffffff8111156107ee576107ed6106c7565b5b60208301915083600182028301111561080a576108096106cc565b5b9250929050565b600080600080600080600080600060a08a8c031215610833576108326106b8565b5b60008a013567ffffffffffffffff811115610851576108506106bd565b5b61085d8c828d016106d1565b995099505060208a013567ffffffffffffffff8111156108805761087f6106bd565b5b61088c8c828d01610727565b975097505060408a013567ffffffffffffffff8111156108af576108ae6106bd565b5b6108bb8c828d01610727565b955095505060606108ce8c828d016107a6565b93505060808a013567ffffffffffffffff8111156108ef576108ee6106bd565b5b6108fb8c828d016107bb565b92509250509295985092959850929598565b60008115159050919050565b6109228161090d565b82525050565b600060208201905061093d6000830184610919565b92915050565b600061094e8261066a565b9050919050565b61095e81610943565b82525050565b60006020820190506109796000830184610955565b92915050565b6000819050919050565b6109928161097f565b811461099d57600080fd5b50565b6000813590506109af81610989565b92915050565b600080604083850312156109cc576109cb6106b8565b5b60006109da858286016107a6565b92505060206109eb858286016109a0565b9150509250929050565b7f4e487b7100000000000000000000000000000000000000000000000000000000600052603260045260246000fd5b600082825260208201905092915050565b7f626f72726f776564000000000000000000000000000000000000000000000000600082015250565b6000610a6b600883610a24565b9150610a7682610a35565b602082019050919050565b610a8a8161097f565b82525050565b60006040820190508181036000830152610aa981610a5e565b9050610ab86020830184610a81565b92915050565b7f6665650000000000000000000000000000000000000000000000000000000000600082015250565b6000610af4600383610a24565b9150610aff82610abe565b602082019050919050565b60006040820190508181036000830152610b2381610ae7565b9050610b326020830184610a81565b92915050565b600060208284031215610b4e57610b4d6106b8565b5b6000610b5c848285016107a6565b91505092915050565b610b6e8161077d565b82525050565b6000604082019050610b896000830185610b65565b610b966020830184610a81565b9392505050565b610ba68161090d565b8114610bb157600080fd5b50565b600081519050610bc381610b9d565b92915050565b600060208284031215610bdf57610bde6106b8565b5b6000610bed84828501610bb4565b91505092915050565b7f4e487b7100000000000000000000000000000000000000000000000000000000600052601160045260246000fd5b6000610c308261097f565b91507fffffffffffffffffffffffffffffffffffffffffffffffffffffffffffffffff821415610c6357610c62610bf6565b5b600182019050919050565b6000602082019050610c836000830184610b65565b92915050565b600081519050610c9881610989565b92915050565b600060208284031215610cb457610cb36106b8565b5b6000610cc284828501610c89565b91505092915050565b7f62616c203c3d20616d6f756e7400000000000000000000000000000000000000600082015250565b6000610d01600d83610a24565b9150610d0c82610ccb565b602082019050919050565b60006020820190508181036000830152610d3081610cf4565b9050919050565b7f4e487b7100000000000000000000000000000000000000000000000000000000600052604160045260246000fd5b600081519050919050565b600082825260208201905092915050565b6000819050602082019050919050565b610d9b8161077d565b82525050565b6000610dad8383610d92565b60208301905092915050565b6000602082019050919050565b6000610dd182610d66565b610ddb8185610d71565b9350610de683610d82565b8060005b83811015610e17578151610dfe8882610da1565b9750610e0983610db9565b925050600181019050610dea565b5085935050505092915050565b600081519050919050565b600082825260208201905092915050565b6000819050602082019050919050565b610e598161097f565b82525050565b6000610e6b8383610e50565b60208301905092915050565b6000602082019050919050565b6000610e8f82610e24565b610e998185610e2f565b9350610ea483610e40565b8060005b83811015610ed5578151610ebc8882610e5f565b9750610ec783610e77565b925050600181019050610ea8565b5085935050505092915050565b600081519050919050565b600082825260208201905092915050565b60005b83811015610f1c578082015181840152602081019050610f01565b83811115610f2b576000848401525b50505050565b6000601f19601f8301169050919050565b6000610f4d82610ee2565b610f578185610eed565b9350610f67818560208601610efe565b610f7081610f31565b840191505092915050565b600061ffff82169050919050565b610f9281610f7b565b82525050565b600060e082019050610fad600083018a610b65565b8181036020830152610fbf8189610dc6565b90508181036040830152610fd38188610e84565b90508181036060830152610fe78187610e84565b9050610ff66080830186610b65565b81810360a08301526110088185610f42565b905061101760c0830184610f89565b98975050505050505050565b600061102e8261097f565b91506110398361097f565b9250827fffffffffffffffffffffffffffffffffffffffffffffffffffffffffffffffff0382111561106e5761106d610bf6565b5b82820190509291505056fea2646970667358221220bf749ece07820489f345c2e7e5a2085ec4ee4fc74622f98b008201e423c6eef764736f6c634300080b0033",
  "immutableReferences": {
    "1266": [
      {
        "length": 32,
        "start": 219
      }
    ],
    "1269": [
      {
        "length": 32,
        "start": 574
      },
      {
        "length": 32,
        "start": 743
      },
      {
        "length": 32,
        "start": 1383
      }
    ]
  },
  "source": "// SPDX-License-Identifier: MIT\r\npragma solidity ^0.8;\r\n\r\nimport \"@openzeppelin/contracts/utils/math/SafeMath.sol\";\r\nimport \"./interfaces/FlashLoanReceiverBase.sol\";\r\n\r\ncontract AaveFlashLoan is FlashLoanReceiverBase {\r\n  using SafeMath for uint;\r\n\r\n  event Log(string message, uint val);\r\n\r\n  constructor(ILendingPoolAddressesProvider _addressProvider) public FlashLoanReceiverBase(_addressProvider) {}\r\n\r\n  function testFlashLoan(address asset, uint amount) external {\r\n    uint bal = IERC20(asset).balanceOf(address(this));\r\n    require(bal > amount, \"bal <= amount\");\r\n\r\n    address receiver = address(this);\r\n\r\n    address[] memory assets = new address[](1);\r\n    assets[0] = asset;\r\n\r\n    uint[] memory amounts = new uint[](1);\r\n    amounts[0] = amount;\r\n\r\n    // 0 = no debt, 1 = stable, 2 = variable\r\n    // 0 = pay all loaned\r\n    uint[] memory modes = new uint[](1);\r\n    modes[0] = 0;\r\n\r\n    address onBehalfOf = address(this);\r\n\r\n    bytes memory params = \"\"; // extra data to pass abi.encode(...)\r\n    uint16 referralCode = 0;\r\n\r\n    LENDING_POOL.flashLoan(\r\n      receiver,\r\n      assets,\r\n      amounts,\r\n      modes,\r\n      onBehalfOf,\r\n      params,\r\n      referralCode\r\n    );\r\n  }\r\n\r\n  /**\r\n   * @dev executeOperation() function is called by Aave as part of the execution of the flashLoan() function\r\n   * @dev when this function is called, the borrowed tokens are available to be spent within the execution of the function, and at the end of the execution the borrowed tokens must be repayed\r\n   * @param assets -> The assets that were requested\r\n   * @param amounts -> The amounts that were borrowed\r\n   * @param premiums -> The fees to pay for the borrow\r\n   * @param initiator -> The address that triggers the flashloan\r\n   * @param params -> Any other extra data (Encoded)\r\n   */\r\n  function executeOperation(\r\n    address[] calldata assets,\r\n    uint[] calldata amounts,\r\n    uint[] calldata premiums,\r\n    address initiator,\r\n    bytes calldata params\r\n  ) external override returns (bool) {\r\n    // do stuff here (arbitrage, liquidation, etc...)\r\n    // abi.decode(params) to decode params\r\n    for (uint i = 0; i < assets.length; i++) {\r\n      emit Log(\"borrowed\", amounts[i]);\r\n      emit Log(\"fee\", premiums[i]);\r\n\r\n      uint amountOwing = amounts[i].add(premiums[i]);\r\n      IERC20(assets[i]).approve(address(LENDING_POOL), amountOwing);\r\n    }\r\n    // repay Aave\r\n    return true;\r\n  }\r\n\r\n\r\n}",
  "sourcePath": "/mnt/c/pr0/blockchain-projects/mainnet-fork/AAVE/contracts/AaveFlashLoan.sol",
  "compiler": {
    "name": "solc",
    "version": "0.8.11+commit.d7f03943.Emscripten.clang"
  },
  "schemaVersion": "3.4.4",
  "updatedAt": "2022-10-23T01:30:47.946Z",
  "devdoc": {
    "kind": "dev",
    "methods": {
      "executeOperation(address[],uint256[],uint256[],address,bytes)": {
        "details": "executeOperation() function is called by Aave as part of the execution of the flashLoan() functionwhen this function is called, the borrowed tokens are available to be spent within the execution of the function, and at the end of the execution the borrowed tokens must be repayed",
        "params": {
          "amounts": "-> The amounts that were borrowed",
          "assets": "-> The assets that were requested",
          "initiator": "-> The address that triggers the flashloan",
          "params": "-> Any other extra data (Encoded)",
          "premiums": "-> The fees to pay for the borrow"
        }
      }
    },
    "version": 1
  },
  "userdoc": {
    "kind": "user",
    "methods": {},
    "version": 1
  }
}