{
  "contractName": "UniswapV2Twap_PriceOracle",
  "abi": [
    {
      "inputs": [
        {
          "internalType": "contract IUniswapV2Pair",
          "name": "_pair",
          "type": "address"
        }
      ],
      "stateMutability": "nonpayable",
      "type": "constructor"
    },
    {
      "inputs": [],
      "name": "PERIOD",
      "outputs": [
        {
          "internalType": "uint256",
          "name": "",
          "type": "uint256"
        }
      ],
      "stateMutability": "view",
      "type": "function"
    },
    {
      "inputs": [],
      "name": "blockTimestampLast",
      "outputs": [
        {
          "internalType": "uint32",
          "name": "",
          "type": "uint32"
        }
      ],
      "stateMutability": "view",
      "type": "function"
    },
    {
      "inputs": [],
      "name": "pair",
      "outputs": [
        {
          "internalType": "contract IUniswapV2Pair",
          "name": "",
          "type": "address"
        }
      ],
      "stateMutability": "view",
      "type": "function"
    },
    {
      "inputs": [],
      "name": "price0Average",
      "outputs": [
        {
          "internalType": "uint224",
          "name": "_x",
          "type": "uint224"
        }
      ],
      "stateMutability": "view",
      "type": "function"
    },
    {
      "inputs": [],
      "name": "price0CumulativeLast",
      "outputs": [
        {
          "internalType": "uint256",
          "name": "",
          "type": "uint256"
        }
      ],
      "stateMutability": "view",
      "type": "function"
    },
    {
      "inputs": [],
      "name": "price1Average",
      "outputs": [
        {
          "internalType": "uint224",
          "name": "_x",
          "type": "uint224"
        }
      ],
      "stateMutability": "view",
      "type": "function"
    },
    {
      "inputs": [],
      "name": "price1CumulativeLast",
      "outputs": [
        {
          "internalType": "uint256",
          "name": "",
          "type": "uint256"
        }
      ],
      "stateMutability": "view",
      "type": "function"
    },
    {
      "inputs": [],
      "name": "token0",
      "outputs": [
        {
          "internalType": "address",
          "name": "",
          "type": "address"
        }
      ],
      "stateMutability": "view",
      "type": "function"
    },
    {
      "inputs": [],
      "name": "token1",
      "outputs": [
        {
          "internalType": "address",
          "name": "",
          "type": "address"
        }
      ],
      "stateMutability": "view",
      "type": "function"
    },
    {
      "inputs": [],
      "name": "update",
      "outputs": [],
      "stateMutability": "nonpayable",
      "type": "function"
    },
    {
      "inputs": [
        {
          "internalType": "address",
          "name": "token",
          "type": "address"
        },
        {
          "internalType": "uint256",
          "name": "amountIn",
          "type": "uint256"
        }
      ],
      "name": "consult",
      "outputs": [
        {
          "internalType": "uint256",
          "name": "amountOut",
          "type": "uint256"
        }
      ],
      "stateMutability": "view",
      "type": "function"
    }
  ],
  "bytecode": "0x60e060405234801561001057600080fd5b506040516200126f3803806200126f8339818101604052602081101561003557600080fd5b81019080805190602001909291905050508073ffffffffffffffffffffffffffffffffffffffff1660808173ffffffffffffffffffffffffffffffffffffffff1660601b815250508073ffffffffffffffffffffffffffffffffffffffff16630dfe16816040518163ffffffff1660e01b815260040160206040518083038186803b1580156100c357600080fd5b505afa1580156100d7573d6000803e3d6000fd5b505050506040513d60208110156100ed57600080fd5b810190808051906020019092919050505073ffffffffffffffffffffffffffffffffffffffff1660a08173ffffffffffffffffffffffffffffffffffffffff1660601b815250508073ffffffffffffffffffffffffffffffffffffffff1663d21220a76040518163ffffffff1660e01b815260040160206040518083038186803b15801561017a57600080fd5b505afa15801561018e573d6000803e3d6000fd5b505050506040513d60208110156101a457600080fd5b810190808051906020019092919050505073ffffffffffffffffffffffffffffffffffffffff1660c08173ffffffffffffffffffffffffffffffffffffffff1660601b815250508073ffffffffffffffffffffffffffffffffffffffff16635909c0d56040518163ffffffff1660e01b815260040160206040518083038186803b15801561023157600080fd5b505afa158015610245573d6000803e3d6000fd5b505050506040513d602081101561025b57600080fd5b81019080805190602001909291905050506000819055508073ffffffffffffffffffffffffffffffffffffffff16635a3d54936040518163ffffffff1660e01b815260040160206040518083038186803b1580156102b857600080fd5b505afa1580156102cc573d6000803e3d6000fd5b505050506040513d60208110156102e257600080fd5b81019080805190602001909291905050506001819055508073ffffffffffffffffffffffffffffffffffffffff16630902f1ac6040518163ffffffff1660e01b815260040160606040518083038186803b15801561033f57600080fd5b505afa158015610353573d6000803e3d6000fd5b505050506040513d606081101561036957600080fd5b810190808051906020019092919080519060200190929190805190602001909291905050509091509050600260008291906101000a81548163ffffffff021916908363ffffffff160217905550505060805160601c60a05160601c60c05160601c610e6d62000402600039806103ad52806108f25250806103325280610358528061045252508061065052806108b35250610e6d6000f3fe608060405234801561001057600080fd5b50600436106100a95760003560e01c8063a2e6204511610071578063a2e62045146101f0578063a6bb4539146101fa578063a8aa1b3114610254578063b4d1d7951461029e578063c5700a02146102bc578063d21220a7146102e6576100a9565b80630dfe1681146100ae5780633ddac953146100f85780635909c0d51461015a5780635a3d5493146101785780635e6aaf2c14610196575b600080fd5b6100b6610330565b604051808273ffffffffffffffffffffffffffffffffffffffff1673ffffffffffffffffffffffffffffffffffffffff16815260200191505060405180910390f35b6101446004803603604081101561010e57600080fd5b81019080803573ffffffffffffffffffffffffffffffffffffffff16906020019092919080359060200190929190505050610354565b6040518082815260200191505060405180910390f35b610162610606565b6040518082815260200191505060405180910390f35b61018061060c565b6040518082815260200191505060405180910390f35b61019e610612565b60405180827bffffffffffffffffffffffffffffffffffffffffffffffffffffffff167bffffffffffffffffffffffffffffffffffffffffffffffffffffffff16815260200191505060405180910390f35b6101f8610646565b005b61020261087d565b60405180827bffffffffffffffffffffffffffffffffffffffffffffffffffffffff167bffffffffffffffffffffffffffffffffffffffffffffffffffffffff16815260200191505060405180910390f35b61025c6108b1565b604051808273ffffffffffffffffffffffffffffffffffffffff1673ffffffffffffffffffffffffffffffffffffffff16815260200191505060405180910390f35b6102a66108d5565b6040518082815260200191505060405180910390f35b6102c46108da565b604051808263ffffffff1663ffffffff16815260200191505060405180910390f35b6102ee6108f0565b604051808273ffffffffffffffffffffffffffffffffffffffff1673ffffffffffffffffffffffffffffffffffffffff16815260200191505060405180910390f35b7f000000000000000000000000000000000000000000000000000000000000000081565b60007f000000000000000000000000000000000000000000000000000000000000000073ffffffffffffffffffffffffffffffffffffffff168373ffffffffffffffffffffffffffffffffffffffff1614806103fb57507f000000000000000000000000000000000000000000000000000000000000000073ffffffffffffffffffffffffffffffffffffffff168373ffffffffffffffffffffffffffffffffffffffff16145b610450576040517f08c379a0000000000000000000000000000000000000000000000000000000008152600401808060200182810382526041815260200180610dd46041913960600191505060405180910390fd5b7f000000000000000000000000000000000000000000000000000000000000000073ffffffffffffffffffffffffffffffffffffffff168373ffffffffffffffffffffffffffffffffffffffff161415610554576105396105348360036040518060200160405290816000820160009054906101000a90047bffffffffffffffffffffffffffffffffffffffffffffffffffffffff167bffffffffffffffffffffffffffffffffffffffffffffffffffffffff167bffffffffffffffffffffffffffffffffffffffffffffffffffffffff168152505061091490919063ffffffff16565b6109ea565b71ffffffffffffffffffffffffffffffffffff169050610600565b6105e96105e48360046040518060200160405290816000820160009054906101000a90047bffffffffffffffffffffffffffffffffffffffffffffffffffffffff167bffffffffffffffffffffffffffffffffffffffffffffffffffffffff167bffffffffffffffffffffffffffffffffffffffffffffffffffffffff168152505061091490919063ffffffff16565b6109ea565b71ffffffffffffffffffffffffffffffffffff1690505b92915050565b60005481565b60015481565b60048060000160009054906101000a90047bffffffffffffffffffffffffffffffffffffffffffffffffffffffff16905081565b60008060006106747f00000000000000000000000000000000000000000000000000000000000000006109ff565b9250925092506000600260009054906101000a900463ffffffff1682039050600a8163ffffffff161015610710576040517f08c379a00000000000000000000000000000000000000000000000000000000081526004018080602001828103825260198152602001807f74696d6520656c6170736564203c206d696e20706572696f640000000000000081525060200191505060405180910390fd5b60405180602001604052808263ffffffff1660005487038161072e57fe5b047bffffffffffffffffffffffffffffffffffffffffffffffffffffffff16815250600360008201518160000160006101000a8154817bffffffffffffffffffffffffffffffffffffffffffffffffffffffff02191690837bffffffffffffffffffffffffffffffffffffffffffffffffffffffff16021790555090505060405180602001604052808263ffffffff166001548603816107ca57fe5b047bffffffffffffffffffffffffffffffffffffffffffffffffffffffff16815250600460008201518160000160006101000a8154817bffffffffffffffffffffffffffffffffffffffffffffffffffffffff02191690837bffffffffffffffffffffffffffffffffffffffffffffffffffffffff160217905550905050836000819055508260018190555081600260006101000a81548163ffffffff021916908363ffffffff16021790555050505050565b60038060000160009054906101000a90047bffffffffffffffffffffffffffffffffffffffffffffffffffffffff16905081565b7f000000000000000000000000000000000000000000000000000000000000000081565b600a81565b600260009054906101000a900463ffffffff1681565b7f000000000000000000000000000000000000000000000000000000000000000081565b61091c610d8f565b60008083148061097d575083600001517bffffffffffffffffffffffffffffffffffffffffffffffffffffffff16838486600001517bffffffffffffffffffffffffffffffffffffffffffffffffffffffff16029250828161097a57fe5b04145b6109d2576040517f08c379a0000000000000000000000000000000000000000000000000000000008152600401808060200182810382526023815260200180610e156023913960400191505060405180910390fd5b60405180602001604052808281525091505092915050565b6000607060ff168260000151901c9050919050565b6000806000610a0c610c4a565b90508373ffffffffffffffffffffffffffffffffffffffff16635909c0d56040518163ffffffff1660e01b815260040160206040518083038186803b158015610a5457600080fd5b505afa158015610a68573d6000803e3d6000fd5b505050506040513d6020811015610a7e57600080fd5b810190808051906020019092919050505092508373ffffffffffffffffffffffffffffffffffffffff16635a3d54936040518163ffffffff1660e01b815260040160206040518083038186803b158015610ad757600080fd5b505afa158015610aeb573d6000803e3d6000fd5b505050506040513d6020811015610b0157600080fd5b8101908080519060200190929190505050915060008060008673ffffffffffffffffffffffffffffffffffffffff16630902f1ac6040518163ffffffff1660e01b815260040160606040518083038186803b158015610b5f57600080fd5b505afa158015610b73573d6000803e3d6000fd5b505050506040513d6060811015610b8957600080fd5b810190808051906020019092919080519060200190929190805190602001909291905050509250925092508363ffffffff168163ffffffff1614610c4057600081850390508063ffffffff16610bdf8486610c60565b600001517bffffffffffffffffffffffffffffffffffffffffffffffffffffffff1602870196508063ffffffff16610c178585610c60565b600001517bffffffffffffffffffffffffffffffffffffffffffffffffffffffff160286019550505b5050509193909250565b60006401000000004281610c5a57fe5b06905090565b610c68610da2565b6000826dffffffffffffffffffffffffffff1611610cee576040517f08c379a00000000000000000000000000000000000000000000000000000000081526004018080602001828103825260178152602001807f4669786564506f696e743a204449565f42595f5a45524f00000000000000000081525060200191505060405180910390fd5b6040518060200160405280836dffffffffffffffffffffffffffff16607060ff16866dffffffffffffffffffffffffffff167bffffffffffffffffffffffffffffffffffffffffffffffffffffffff16901b7bffffffffffffffffffffffffffffffffffffffffffffffffffffffff1681610d6557fe5b047bffffffffffffffffffffffffffffffffffffffffffffffffffffffff16815250905092915050565b6040518060200160405280600081525090565b604051806020016040528060007bffffffffffffffffffffffffffffffffffffffffffffffffffffffff168152509056fe696e76616c696420746f6b656e2c2074686973204f7261636c65206973206e6f74207761746368696e6720666f72207468652070726f766964656420746f6b656e4669786564506f696e743a204d554c5449504c49434154494f4e5f4f564552464c4f57a2646970667358221220698845176b2b032207ae796c646f3d61c63a3b589ecad746c1231a06dc36b15f64736f6c63430006060033",
  "immutableReferences": {
    "1118": [
      {
        "length": 32,
        "start": 1616
      },
      {
        "length": 32,
        "start": 2227
      }
    ],
    "1120": [
      {
        "length": 32,
        "start": 818
      },
      {
        "length": 32,
        "start": 856
      },
      {
        "length": 32,
        "start": 1106
      }
    ],
    "1122": [
      {
        "length": 32,
        "start": 941
      },
      {
        "length": 32,
        "start": 2290
      }
    ]
  },
  "source": "//SPDX-License-Identifier: MIT\r\npragma solidity 0.6.6;\r\n// NOTE: using solidity 0.6.6 to match imports\r\n\r\nimport \"@uniswap/v2-core/contracts/interfaces/IUniswapV2Pair.sol\";\r\nimport \"@uniswap/lib/contracts/libraries/FixedPoint.sol\";\r\nimport \"@uniswap/v2-periphery/contracts/libraries/UniswapV2OracleLibrary.sol\";\r\nimport \"@uniswap/v2-periphery/contracts/libraries/UniswapV2Library.sol\";\r\n\r\ncontract UniswapV2Twap_PriceOracle {\r\n  using FixedPoint for *;\r\n\r\n  uint public constant PERIOD = 10; // 10 seconds for the tests! For an oracle deployed in mainnet this value might be a larger period of time, each hour, 2,3,6,12 hours, once a day....\r\n\r\n  IUniswapV2Pair public immutable pair;\r\n  address public immutable token0;\r\n  address public immutable token1;\r\n\r\n  uint public price0CumulativeLast;\r\n  uint public price1CumulativeLast;\r\n  uint32 public blockTimestampLast;\r\n\r\n  // NOTE: binary fixed point numbers\r\n  // range: [0, 2**112 - 1]\r\n  // resolution: 1 / 2**112\r\n  FixedPoint.uq112x112 public price0Average;\r\n  FixedPoint.uq112x112 public price1Average;\r\n\r\n  // NOTE: public visibility\r\n  // NOTE: IUniswapV2Pair\r\n  /**\r\n   * @dev constructor() basically initializes the values for the global variables by retrieving the current information from the token's pair at the moment of the contract's creation\r\n   * @param _pair - This is the address of the token's pair, but it is received as an IUniswapV2Pair, by doing this is possible to make direct calls to the pair's contract  <---> _pair.functionName()\r\n   * - If _pair were received as an address, before calling any function from the pair's contract, it would be required to cast the _pair from an address to an IUniswapV2Pair                <---> IUniswapV2Pair(_pair).functionName()\r\n  */\r\n  constructor(IUniswapV2Pair _pair) public {\r\n    // If the _pair argument were an address, the below asignation would've been made like: pair = IUniswapV2Pair(_pair) <---> casting from an address to an IUniswapV2Pair\r\n    pair = _pair;\r\n    token0 = _pair.token0();\r\n    token1 = _pair.token1();\r\n    price0CumulativeLast = _pair.price0CumulativeLast();\r\n    price1CumulativeLast = _pair.price1CumulativeLast();\r\n    // from the getReserver() we only need the blockTimestamp, the other two returned valued can be \"ignored\"\r\n    (, , blockTimestampLast) = _pair.getReserves();\r\n  }\r\n\r\n  function update() external {\r\n    // Get the current values from the pair's contract\r\n    (\r\n      uint price0Cumulative,\r\n      uint price1Cumulative,\r\n      uint32 blockTimestamp\r\n    ) = UniswapV2OracleLibrary.currentCumulativePrices(address(pair));\r\n    // Calculate the timeElapsed since the last price's update!\r\n    uint32 timeElapsed = blockTimestamp - blockTimestampLast;\r\n\r\n    require(timeElapsed >= PERIOD, \"time elapsed < min period\");\r\n\r\n    // NOTE: overflow is desired\r\n    /*\r\n    |----b-------------------------a---------|\r\n    0                                     2**256 - 1\r\n    b - a is preserved even if b overflows\r\n    */\r\n    // NOTE: uint -> uint224 cuts off the bits above uint224\r\n    // max uint\r\n    // 0xffffffffffffffffffffffffffffffffffffffffffffffffffffffffffffffff\r\n    // max uint244\r\n    // 0x00000000ffffffffffffffffffffffffffffffffffffffffffffffffffffffff\r\n    price0Average = FixedPoint.uq112x112(\r\n      uint224((price0Cumulative - price0CumulativeLast) / timeElapsed)\r\n    );\r\n    price1Average = FixedPoint.uq112x112(\r\n      uint224((price1Cumulative - price1CumulativeLast) / timeElapsed)\r\n    );\r\n\r\n    price0CumulativeLast = price0Cumulative;\r\n    price1CumulativeLast = price1Cumulative;\r\n    blockTimestampLast = blockTimestamp;\r\n  }\r\n\r\n  function consult(address token, uint amountIn) external view returns (uint amountOut) {\r\n    require(token == token0 || token == token1, \"invalid token, this Oracle is not watching for the provided token\");\r\n\r\n    if (token == token0) {\r\n      // NOTE: using FixedPoint for *\r\n      // NOTE: mul returns uq144x112\r\n      // NOTE: decode144 decodes uq144x112 to uint144\r\n      amountOut = price0Average.mul(amountIn).decode144();\r\n    } else {\r\n      amountOut = price1Average.mul(amountIn).decode144();\r\n    }\r\n  }\r\n  \r\n}",
  "sourcePath": "/mnt/c/pr0/blockchain-projects/mainnet-fork/UniswapV2/solidity_0.6/contracts/UniswapV2Twap_PriceOracle.sol",
  "compiler": {
    "name": "solc",
    "version": "0.6.6+commit.6c089d02.Emscripten.clang"
  },
  "schemaVersion": "3.4.4",
  "updatedAt": "2022-09-21T14:15:15.266Z",
  "devdoc": {
    "methods": {
      "constructor": {
        "details": "constructor() basically initializes the values for the global variables by retrieving the current information from the token's pair at the moment of the contract's creation",
        "params": {
          "_pair": "- This is the address of the token's pair, but it is received as an IUniswapV2Pair, by doing this is possible to make direct calls to the pair's contract  <---> _pair.functionName() - If _pair were received as an address, before calling any function from the pair's contract, it would be required to cast the _pair from an address to an IUniswapV2Pair                <---> IUniswapV2Pair(_pair).functionName()"
        }
      }
    }
  },
  "userdoc": {
    "methods": {}
  }
}